{
  "_format": "hh-sol-artifact-1",
  "contractName": "QuestBoard",
  "sourceName": "contracts/Questboard.sol",
  "abi": [
    {
      "inputs": [
        {
          "internalType": "string",
          "name": "name_",
          "type": "string"
        },
        {
          "internalType": "string",
          "name": "symbol_",
          "type": "string"
        },
        {
          "internalType": "address",
          "name": "newOwner_",
          "type": "address"
        },
        {
          "internalType": "uint8",
          "name": "lsp4TokenType_",
          "type": "uint8"
        },
        {
          "internalType": "uint8",
          "name": "lsp8TokenIdFormat_",
          "type": "uint8"
        }
      ],
      "stateMutability": "nonpayable",
      "type": "constructor"
    },
    {
      "inputs": [],
      "name": "ERC725Y_DataKeysValuesEmptyArray",
      "type": "error"
    },
    {
      "inputs": [],
      "name": "ERC725Y_DataKeysValuesLengthMismatch",
      "type": "error"
    },
    {
      "inputs": [],
      "name": "ERC725Y_MsgValueDisallowed",
      "type": "error"
    },
    {
      "inputs": [
        {
          "internalType": "bytes",
          "name": "storedData",
          "type": "bytes"
        }
      ],
      "name": "InvalidExtensionAddress",
      "type": "error"
    },
    {
      "inputs": [
        {
          "internalType": "bytes",
          "name": "data",
          "type": "bytes"
        }
      ],
      "name": "InvalidFunctionSelector",
      "type": "error"
    },
    {
      "inputs": [],
      "name": "LSP4TokenNameNotEditable",
      "type": "error"
    },
    {
      "inputs": [],
      "name": "LSP4TokenSymbolNotEditable",
      "type": "error"
    },
    {
      "inputs": [],
      "name": "LSP4TokenTypeNotEditable",
      "type": "error"
    },
    {
      "inputs": [
        {
          "internalType": "uint256",
          "name": "callIndex",
          "type": "uint256"
        }
      ],
      "name": "LSP8BatchCallFailed",
      "type": "error"
    },
    {
      "inputs": [],
      "name": "LSP8CannotSendToAddressZero",
      "type": "error"
    },
    {
      "inputs": [],
      "name": "LSP8CannotUseAddressZeroAsOperator",
      "type": "error"
    },
    {
      "inputs": [],
      "name": "LSP8InvalidTransferBatch",
      "type": "error"
    },
    {
      "inputs": [
        {
          "internalType": "bytes32",
          "name": "tokenId",
          "type": "bytes32"
        }
      ],
      "name": "LSP8NonExistentTokenId",
      "type": "error"
    },
    {
      "inputs": [
        {
          "internalType": "address",
          "name": "operator",
          "type": "address"
        },
        {
          "internalType": "bytes32",
          "name": "tokenId",
          "type": "bytes32"
        }
      ],
      "name": "LSP8NonExistingOperator",
      "type": "error"
    },
    {
      "inputs": [
        {
          "internalType": "bytes32",
          "name": "tokenId",
          "type": "bytes32"
        },
        {
          "internalType": "address",
          "name": "caller",
          "type": "address"
        }
      ],
      "name": "LSP8NotTokenOperator",
      "type": "error"
    },
    {
      "inputs": [
        {
          "internalType": "address",
          "name": "tokenOwner",
          "type": "address"
        },
        {
          "internalType": "bytes32",
          "name": "tokenId",
          "type": "bytes32"
        },
        {
          "internalType": "address",
          "name": "caller",
          "type": "address"
        }
      ],
      "name": "LSP8NotTokenOwner",
      "type": "error"
    },
    {
      "inputs": [
        {
          "internalType": "address",
          "name": "tokenReceiver",
          "type": "address"
        }
      ],
      "name": "LSP8NotifyTokenReceiverContractMissingLSP1Interface",
      "type": "error"
    },
    {
      "inputs": [
        {
          "internalType": "address",
          "name": "tokenReceiver",
          "type": "address"
        }
      ],
      "name": "LSP8NotifyTokenReceiverIsEOA",
      "type": "error"
    },
    {
      "inputs": [
        {
          "internalType": "address",
          "name": "operator",
          "type": "address"
        },
        {
          "internalType": "bytes32",
          "name": "tokenId",
          "type": "bytes32"
        }
      ],
      "name": "LSP8OperatorAlreadyAuthorized",
      "type": "error"
    },
    {
      "inputs": [
        {
          "internalType": "address",
          "name": "caller",
          "type": "address"
        },
        {
          "internalType": "address",
          "name": "tokenOwner",
          "type": "address"
        },
        {
          "internalType": "bytes32",
          "name": "tokenId",
          "type": "bytes32"
        }
      ],
      "name": "LSP8RevokeOperatorNotAuthorized",
      "type": "error"
    },
    {
      "inputs": [],
      "name": "LSP8TokenContractCannotHoldValue",
      "type": "error"
    },
    {
      "inputs": [
        {
          "internalType": "bytes32",
          "name": "tokenId",
          "type": "bytes32"
        }
      ],
      "name": "LSP8TokenIdAlreadyMinted",
      "type": "error"
    },
    {
      "inputs": [],
      "name": "LSP8TokenIdFormatNotEditable",
      "type": "error"
    },
    {
      "inputs": [],
      "name": "LSP8TokenIdsDataEmptyArray",
      "type": "error"
    },
    {
      "inputs": [],
      "name": "LSP8TokenIdsDataLengthMismatch",
      "type": "error"
    },
    {
      "inputs": [],
      "name": "LSP8TokenOwnerCannotBeOperator",
      "type": "error"
    },
    {
      "inputs": [
        {
          "internalType": "bytes32",
          "name": "tokenId",
          "type": "bytes32"
        },
        {
          "internalType": "address",
          "name": "oldOwner",
          "type": "address"
        },
        {
          "internalType": "address",
          "name": "newOwner",
          "type": "address"
        }
      ],
      "name": "LSP8TokenOwnerChanged",
      "type": "error"
    },
    {
      "inputs": [
        {
          "internalType": "bytes4",
          "name": "functionSelector",
          "type": "bytes4"
        }
      ],
      "name": "NoExtensionFoundForFunctionSelector",
      "type": "error"
    },
    {
      "inputs": [],
      "name": "OwnableCannotSetZeroAddressAsOwner",
      "type": "error"
    },
    {
      "anonymous": false,
      "inputs": [
        {
          "indexed": true,
          "internalType": "bytes32",
          "name": "dataKey",
          "type": "bytes32"
        },
        {
          "indexed": false,
          "internalType": "bytes",
          "name": "dataValue",
          "type": "bytes"
        }
      ],
      "name": "DataChanged",
      "type": "event"
    },
    {
      "anonymous": false,
      "inputs": [
        {
          "indexed": true,
          "internalType": "address",
          "name": "operator",
          "type": "address"
        },
        {
          "indexed": true,
          "internalType": "address",
          "name": "tokenOwner",
          "type": "address"
        },
        {
          "indexed": true,
          "internalType": "bytes32",
          "name": "tokenId",
          "type": "bytes32"
        },
        {
          "indexed": false,
          "internalType": "bytes",
          "name": "operatorNotificationData",
          "type": "bytes"
        }
      ],
      "name": "OperatorAuthorizationChanged",
      "type": "event"
    },
    {
      "anonymous": false,
      "inputs": [
        {
          "indexed": true,
          "internalType": "address",
          "name": "operator",
          "type": "address"
        },
        {
          "indexed": true,
          "internalType": "address",
          "name": "tokenOwner",
          "type": "address"
        },
        {
          "indexed": true,
          "internalType": "bytes32",
          "name": "tokenId",
          "type": "bytes32"
        },
        {
          "indexed": false,
          "internalType": "bool",
          "name": "notified",
          "type": "bool"
        },
        {
          "indexed": false,
          "internalType": "bytes",
          "name": "operatorNotificationData",
          "type": "bytes"
        }
      ],
      "name": "OperatorRevoked",
      "type": "event"
    },
    {
      "anonymous": false,
      "inputs": [
        {
          "indexed": true,
          "internalType": "address",
          "name": "previousOwner",
          "type": "address"
        },
        {
          "indexed": true,
          "internalType": "address",
          "name": "newOwner",
          "type": "address"
        }
      ],
      "name": "OwnershipTransferred",
      "type": "event"
    },
    {
      "anonymous": false,
      "inputs": [
        {
          "indexed": true,
          "internalType": "uint256",
          "name": "questId",
          "type": "uint256"
        },
        {
          "indexed": true,
          "internalType": "address",
          "name": "winner",
          "type": "address"
        },
        {
          "indexed": false,
          "internalType": "uint256",
          "name": "xpAwarded",
          "type": "uint256"
        }
      ],
      "name": "QuestCompleted",
      "type": "event"
    },
    {
      "anonymous": false,
      "inputs": [
        {
          "indexed": true,
          "internalType": "uint256",
          "name": "questId",
          "type": "uint256"
        },
        {
          "indexed": true,
          "internalType": "address",
          "name": "creator",
          "type": "address"
        }
      ],
      "name": "QuestCreated",
      "type": "event"
    },
    {
      "anonymous": false,
      "inputs": [
        {
          "indexed": true,
          "internalType": "bytes32",
          "name": "tokenId",
          "type": "bytes32"
        },
        {
          "indexed": true,
          "internalType": "bytes32",
          "name": "dataKey",
          "type": "bytes32"
        },
        {
          "indexed": false,
          "internalType": "bytes",
          "name": "dataValue",
          "type": "bytes"
        }
      ],
      "name": "TokenIdDataChanged",
      "type": "event"
    },
    {
      "anonymous": false,
      "inputs": [
        {
          "indexed": false,
          "internalType": "address",
          "name": "operator",
          "type": "address"
        },
        {
          "indexed": true,
          "internalType": "address",
          "name": "from",
          "type": "address"
        },
        {
          "indexed": true,
          "internalType": "address",
          "name": "to",
          "type": "address"
        },
        {
          "indexed": true,
          "internalType": "bytes32",
          "name": "tokenId",
          "type": "bytes32"
        },
        {
          "indexed": false,
          "internalType": "bool",
          "name": "force",
          "type": "bool"
        },
        {
          "indexed": false,
          "internalType": "bytes",
          "name": "data",
          "type": "bytes"
        }
      ],
      "name": "Transfer",
      "type": "event"
    },
    {
      "stateMutability": "payable",
      "type": "fallback"
    },
    {
      "inputs": [
        {
          "internalType": "address",
          "name": "operator",
          "type": "address"
        },
        {
          "internalType": "bytes32",
          "name": "tokenId",
          "type": "bytes32"
        },
        {
          "internalType": "bytes",
          "name": "operatorNotificationData",
          "type": "bytes"
        }
      ],
      "name": "authorizeOperator",
      "outputs": [],
      "stateMutability": "nonpayable",
      "type": "function"
    },
    {
      "inputs": [
        {
          "internalType": "address",
          "name": "tokenOwner",
          "type": "address"
        }
      ],
      "name": "balanceOf",
      "outputs": [
        {
          "internalType": "uint256",
          "name": "",
          "type": "uint256"
        }
      ],
      "stateMutability": "view",
      "type": "function"
    },
    {
      "inputs": [
        {
          "internalType": "bytes[]",
          "name": "data",
          "type": "bytes[]"
        }
      ],
      "name": "batchCalls",
      "outputs": [
        {
          "internalType": "bytes[]",
          "name": "results",
          "type": "bytes[]"
        }
      ],
      "stateMutability": "nonpayable",
      "type": "function"
    },
    {
      "inputs": [
        {
          "internalType": "uint256",
          "name": "questId",
          "type": "uint256"
        },
        {
          "internalType": "address",
          "name": "winner",
          "type": "address"
        },
        {
          "internalType": "uint256",
          "name": "xp",
          "type": "uint256"
        }
      ],
      "name": "completeQuest",
      "outputs": [],
      "stateMutability": "nonpayable",
      "type": "function"
    },
    {
      "inputs": [
        {
          "internalType": "bytes",
          "name": "metadata",
          "type": "bytes"
        }
      ],
      "name": "createQuest",
      "outputs": [],
      "stateMutability": "payable",
      "type": "function"
    },
    {
      "inputs": [
        {
          "internalType": "bytes32",
          "name": "dataKey",
          "type": "bytes32"
        }
      ],
      "name": "getData",
      "outputs": [
        {
          "internalType": "bytes",
          "name": "dataValue",
          "type": "bytes"
        }
      ],
      "stateMutability": "view",
      "type": "function"
    },
    {
      "inputs": [
        {
          "internalType": "bytes32[]",
          "name": "dataKeys",
          "type": "bytes32[]"
        }
      ],
      "name": "getDataBatch",
      "outputs": [
        {
          "internalType": "bytes[]",
          "name": "dataValues",
          "type": "bytes[]"
        }
      ],
      "stateMutability": "view",
      "type": "function"
    },
    {
      "inputs": [
        {
          "internalType": "bytes32[]",
          "name": "tokenIds",
          "type": "bytes32[]"
        },
        {
          "internalType": "bytes32[]",
          "name": "dataKeys",
          "type": "bytes32[]"
        }
      ],
      "name": "getDataBatchForTokenIds",
      "outputs": [
        {
          "internalType": "bytes[]",
          "name": "dataValues",
          "type": "bytes[]"
        }
      ],
      "stateMutability": "view",
      "type": "function"
    },
    {
      "inputs": [
        {
          "internalType": "bytes32",
          "name": "tokenId",
          "type": "bytes32"
        },
        {
          "internalType": "bytes32",
          "name": "dataKey",
          "type": "bytes32"
        }
      ],
      "name": "getDataForTokenId",
      "outputs": [
        {
          "internalType": "bytes",
          "name": "dataValue",
          "type": "bytes"
        }
      ],
      "stateMutability": "view",
      "type": "function"
    },
    {
      "inputs": [
        {
          "internalType": "bytes32",
          "name": "tokenId",
          "type": "bytes32"
        }
      ],
      "name": "getOperatorsOf",
      "outputs": [
        {
          "internalType": "address[]",
          "name": "",
          "type": "address[]"
        }
      ],
      "stateMutability": "view",
      "type": "function"
    },
    {
      "inputs": [
        {
          "internalType": "address",
          "name": "operator",
          "type": "address"
        },
        {
          "internalType": "bytes32",
          "name": "tokenId",
          "type": "bytes32"
        }
      ],
      "name": "isOperatorFor",
      "outputs": [
        {
          "internalType": "bool",
          "name": "",
          "type": "bool"
        }
      ],
      "stateMutability": "view",
      "type": "function"
    },
    {
      "inputs": [],
      "name": "nextQuestId",
      "outputs": [
        {
          "internalType": "uint256",
          "name": "",
          "type": "uint256"
        }
      ],
      "stateMutability": "view",
      "type": "function"
    },
    {
      "inputs": [],
      "name": "owner",
      "outputs": [
        {
          "internalType": "address",
          "name": "",
          "type": "address"
        }
      ],
      "stateMutability": "view",
      "type": "function"
    },
    {
      "inputs": [
        {
          "internalType": "uint256",
          "name": "",
          "type": "uint256"
        }
      ],
      "name": "questCompleted",
      "outputs": [
        {
          "internalType": "bool",
          "name": "",
          "type": "bool"
        }
      ],
      "stateMutability": "view",
      "type": "function"
    },
    {
      "inputs": [
        {
          "internalType": "uint256",
          "name": "",
          "type": "uint256"
        }
      ],
      "name": "questCreators",
      "outputs": [
        {
          "internalType": "address",
          "name": "",
          "type": "address"
        }
      ],
      "stateMutability": "view",
      "type": "function"
    },
    {
      "inputs": [
        {
          "internalType": "uint256",
          "name": "",
          "type": "uint256"
        }
      ],
      "name": "questRewards",
      "outputs": [
        {
          "internalType": "uint256",
          "name": "",
          "type": "uint256"
        }
      ],
      "stateMutability": "view",
      "type": "function"
    },
    {
      "inputs": [],
      "name": "renounceOwnership",
      "outputs": [],
      "stateMutability": "nonpayable",
      "type": "function"
    },
    {
      "inputs": [
        {
          "internalType": "address",
          "name": "operator",
          "type": "address"
        },
        {
          "internalType": "bytes32",
          "name": "tokenId",
          "type": "bytes32"
        },
        {
          "internalType": "bool",
          "name": "notify",
          "type": "bool"
        },
        {
          "internalType": "bytes",
          "name": "operatorNotificationData",
          "type": "bytes"
        }
      ],
      "name": "revokeOperator",
      "outputs": [],
      "stateMutability": "nonpayable",
      "type": "function"
    },
    {
      "inputs": [
        {
          "internalType": "bytes32",
          "name": "dataKey",
          "type": "bytes32"
        },
        {
          "internalType": "bytes",
          "name": "dataValue",
          "type": "bytes"
        }
      ],
      "name": "setData",
      "outputs": [],
      "stateMutability": "payable",
      "type": "function"
    },
    {
      "inputs": [
        {
          "internalType": "bytes32[]",
          "name": "dataKeys",
          "type": "bytes32[]"
        },
        {
          "internalType": "bytes[]",
          "name": "dataValues",
          "type": "bytes[]"
        }
      ],
      "name": "setDataBatch",
      "outputs": [],
      "stateMutability": "payable",
      "type": "function"
    },
    {
      "inputs": [
        {
          "internalType": "bytes32[]",
          "name": "tokenIds",
          "type": "bytes32[]"
        },
        {
          "internalType": "bytes32[]",
          "name": "dataKeys",
          "type": "bytes32[]"
        },
        {
          "internalType": "bytes[]",
          "name": "dataValues",
          "type": "bytes[]"
        }
      ],
      "name": "setDataBatchForTokenIds",
      "outputs": [],
      "stateMutability": "nonpayable",
      "type": "function"
    },
    {
      "inputs": [
        {
          "internalType": "bytes32",
          "name": "tokenId",
          "type": "bytes32"
        },
        {
          "internalType": "bytes32",
          "name": "dataKey",
          "type": "bytes32"
        },
        {
          "internalType": "bytes",
          "name": "dataValue",
          "type": "bytes"
        }
      ],
      "name": "setDataForTokenId",
      "outputs": [],
      "stateMutability": "nonpayable",
      "type": "function"
    },
    {
      "inputs": [
        {
          "internalType": "bytes4",
          "name": "interfaceId",
          "type": "bytes4"
        }
      ],
      "name": "supportsInterface",
      "outputs": [
        {
          "internalType": "bool",
          "name": "",
          "type": "bool"
        }
      ],
      "stateMutability": "view",
      "type": "function"
    },
    {
      "inputs": [
        {
          "internalType": "address",
          "name": "tokenOwner",
          "type": "address"
        }
      ],
      "name": "tokenIdsOf",
      "outputs": [
        {
          "internalType": "bytes32[]",
          "name": "",
          "type": "bytes32[]"
        }
      ],
      "stateMutability": "view",
      "type": "function"
    },
    {
      "inputs": [
        {
          "internalType": "bytes32",
          "name": "tokenId",
          "type": "bytes32"
        }
      ],
      "name": "tokenOwnerOf",
      "outputs": [
        {
          "internalType": "address",
          "name": "",
          "type": "address"
        }
      ],
      "stateMutability": "view",
      "type": "function"
    },
    {
      "inputs": [],
      "name": "totalSupply",
      "outputs": [
        {
          "internalType": "uint256",
          "name": "",
          "type": "uint256"
        }
      ],
      "stateMutability": "view",
      "type": "function"
    },
    {
      "inputs": [
        {
          "internalType": "address",
          "name": "from",
          "type": "address"
        },
        {
          "internalType": "address",
          "name": "to",
          "type": "address"
        },
        {
          "internalType": "bytes32",
          "name": "tokenId",
          "type": "bytes32"
        },
        {
          "internalType": "bool",
          "name": "force",
          "type": "bool"
        },
        {
          "internalType": "bytes",
          "name": "data",
          "type": "bytes"
        }
      ],
      "name": "transfer",
      "outputs": [],
      "stateMutability": "nonpayable",
      "type": "function"
    },
    {
      "inputs": [
        {
          "internalType": "address[]",
          "name": "from",
          "type": "address[]"
        },
        {
          "internalType": "address[]",
          "name": "to",
          "type": "address[]"
        },
        {
          "internalType": "bytes32[]",
          "name": "tokenId",
          "type": "bytes32[]"
        },
        {
          "internalType": "bool[]",
          "name": "force",
          "type": "bool[]"
        },
        {
          "internalType": "bytes[]",
          "name": "data",
          "type": "bytes[]"
        }
      ],
      "name": "transferBatch",
      "outputs": [],
      "stateMutability": "nonpayable",
      "type": "function"
    },
    {
      "inputs": [
        {
          "internalType": "address",
          "name": "newOwner",
          "type": "address"
        }
      ],
      "name": "transferOwnership",
      "outputs": [],
      "stateMutability": "nonpayable",
      "type": "function"
    },
    {
      "stateMutability": "payable",
      "type": "receive"
    }
  ],
  "bytecode": "0x60806040523480156200001157600080fd5b5060405162005f5538038062005f5583398181016040528101906200003791906200074f565b8484848460ff168460ff168484848481620000676200005b6200027460201b60201c565b6200027c60201b60201c565b600073ffffffffffffffffffffffffffffffffffffffff168173ffffffffffffffffffffffffffffffffffffffff1603620000ce576040517f1ad8836c00000000000000000000000000000000000000000000000000000000815260040160405180910390fd5b620000df816200027c60201b60201c565b506200014a7feafec4d89fa9619884b60000a4d96624a38f7ac2d8d9a604ecf07c12c77e480c60001b6040518060400160405280600481526020017fa4d96624000000000000000000000000000000000000000000000000000000008152506200034060201b60201c565b6200017f7fdeba1e292f8ba88238e10ab3c7f88bd4be4fac56cad5194b6ecceaf653468af160001b856200034060201b60201c565b620001b47f2f0a68ab07768e01943a599e73362a0e17a63a72e94dd2e384d2c1d4db93275660001b846200034060201b60201c565b6200020a7fe0261fa95db2eb3b5439bd033cda66d56b96f92f243a8228fd87550ed7bdfdb360001b82604051602001620001ef919062000830565b6040516020818303038152906040526200034060201b60201c565b50505050620002647ff675e9361af1c1664c1868cfa3eb97672d6b1a513aa5b81dec34c9ee330e818d60001b8260405160200162000249919062000830565b604051602081830303815290604052620003a160201b60201c565b5050505050505050505062000beb565b600033905090565b60008060009054906101000a900473ffffffffffffffffffffffffffffffffffffffff169050816000806101000a81548173ffffffffffffffffffffffffffffffffffffffff021916908373ffffffffffffffffffffffffffffffffffffffff1602179055508173ffffffffffffffffffffffffffffffffffffffff168173ffffffffffffffffffffffffffffffffffffffff167f8be0079c531659141344cd1fd0a4f28419497f9722a3daafe3b4186f6b6457e060405160405180910390a35050565b8060016000848152602001908152602001600020908162000362919062000a8e565b50817fece574603820d07bc9b91f2a932baadf4628aabcb8afba49776529c14a6104b28260405162000395919062000bc7565b60405180910390a25050565b7fdeba1e292f8ba88238e10ab3c7f88bd4be4fac56cad5194b6ecceaf653468af160001b8203620003fe576040517f85c169bd00000000000000000000000000000000000000000000000000000000815260040160405180910390fd5b7f2f0a68ab07768e01943a599e73362a0e17a63a72e94dd2e384d2c1d4db93275660001b82036200045b576040517f76755b3800000000000000000000000000000000000000000000000000000000815260040160405180910390fd5b7fe0261fa95db2eb3b5439bd033cda66d56b96f92f243a8228fd87550ed7bdfdb360001b8203620004b8576040517f4ef6d7fb00000000000000000000000000000000000000000000000000000000815260040160405180910390fd5b80600160008481526020019081526020016000209081620004da919062000a8e565b50817fece574603820d07bc9b91f2a932baadf4628aabcb8afba49776529c14a6104b2826040516200050d919062000bc7565b60405180910390a25050565b6000604051905090565b600080fd5b600080fd5b600080fd5b600080fd5b6000601f19601f8301169050919050565b7f4e487b7100000000000000000000000000000000000000000000000000000000600052604160045260246000fd5b620005828262000537565b810181811067ffffffffffffffff82111715620005a457620005a362000548565b5b80604052505050565b6000620005b962000519565b9050620005c7828262000577565b919050565b600067ffffffffffffffff821115620005ea57620005e962000548565b5b620005f58262000537565b9050602081019050919050565b60005b838110156200062257808201518184015260208101905062000605565b60008484015250505050565b6000620006456200063f84620005cc565b620005ad565b90508281526020810184848401111562000664576200066362000532565b5b6200067184828562000602565b509392505050565b600082601f8301126200069157620006906200052d565b5b8151620006a38482602086016200062e565b91505092915050565b600073ffffffffffffffffffffffffffffffffffffffff82169050919050565b6000620006d982620006ac565b9050919050565b620006eb81620006cc565b8114620006f757600080fd5b50565b6000815190506200070b81620006e0565b92915050565b600060ff82169050919050565b620007298162000711565b81146200073557600080fd5b50565b60008151905062000749816200071e565b92915050565b600080600080600060a086880312156200076e576200076d62000523565b5b600086015167ffffffffffffffff8111156200078f576200078e62000528565b5b6200079d8882890162000679565b955050602086015167ffffffffffffffff811115620007c157620007c062000528565b5b620007cf8882890162000679565b9450506040620007e288828901620006fa565b9350506060620007f58882890162000738565b9250506080620008088882890162000738565b9150509295509295909350565b6000819050919050565b6200082a8162000815565b82525050565b60006020820190506200084760008301846200081f565b92915050565b600081519050919050565b7f4e487b7100000000000000000000000000000000000000000000000000000000600052602260045260246000fd5b60006002820490506001821680620008a057607f821691505b602082108103620008b657620008b562000858565b5b50919050565b60008190508160005260206000209050919050565b60006020601f8301049050919050565b600082821b905092915050565b600060088302620009207fffffffffffffffffffffffffffffffffffffffffffffffffffffffffffffffff82620008e1565b6200092c8683620008e1565b95508019841693508086168417925050509392505050565b6000819050919050565b60006200096f62000969620009638462000815565b62000944565b62000815565b9050919050565b6000819050919050565b6200098b836200094e565b620009a36200099a8262000976565b848454620008ee565b825550505050565b600090565b620009ba620009ab565b620009c781848462000980565b505050565b5b81811015620009ef57620009e3600082620009b0565b600181019050620009cd565b5050565b601f82111562000a3e5762000a0881620008bc565b62000a1384620008d1565b8101602085101562000a23578190505b62000a3b62000a3285620008d1565b830182620009cc565b50505b505050565b600082821c905092915050565b600062000a636000198460080262000a43565b1980831691505092915050565b600062000a7e838362000a50565b9150826002028217905092915050565b62000a99826200084d565b67ffffffffffffffff81111562000ab55762000ab462000548565b5b62000ac1825462000887565b62000ace828285620009f3565b600060209050601f83116001811462000b06576000841562000af1578287015190505b62000afd858262000a70565b86555062000b6d565b601f19841662000b1686620008bc565b60005b8281101562000b405784890151825560018201915060208501945060208101905062000b19565b8683101562000b60578489015162000b5c601f89168262000a50565b8355505b6001600288020188555050505b505050505050565b600082825260208201905092915050565b600062000b93826200084d565b62000b9f818562000b75565b935062000bb181856020860162000602565b62000bbc8162000537565b840191505092915050565b6000602082019050818103600083015262000be3818462000b86565b905092915050565b61535a8062000bfb6000396000f3fe6080604052600436106101c65760003560e01c806370a08231116100f75780639790242111610095578063d6c1407c11610064578063d6c1407c1461077a578063db8c9663146107a3578063dedff9c6146107cc578063f2fde38b1461080957610240565b806397902421146106cd578063a3b261f2146106e9578063be9f0e6f14610726578063d638c9831461074f57610240565b80637f23690c116100d15780637f23690c1461064157806381b14a271461065d57806386a10ddd146106795780638da5cb5b146106a257610240565b806370a08231146105c4578063715018a6146106015780637e87632c1461061857610240565b806321d7c05a11610164578063511b69521161013e578063511b6952146104e457806354f6127f1461050d5780636963d4381461054a5780636af7977f1461058757610240565b806321d7c05a1461042d5780632a3654a41461046a57806349a6078d146104a757610240565b806316e023b3116101a057806316e023b31461034b57806318160ddd146103885780631d26fce6146103b3578063217b2270146103f057610240565b806301ffc9a7146102a8578063047f1e2b146102e55780630f13dda41461030e57610240565b36610240576000340361020e576040517fe5099ee300000000000000000000000000000000000000000000000000000000815260040161020590613344565b60405180910390fd5b6040517f61f4944200000000000000000000000000000000000000000000000000000000815260040160405180910390fd5b60003660606004600036905010156102915782826040517fe5099ee30000000000000000000000000000000000000000000000000000000081526004016102889291906133b1565b60405180910390fd5b61029b8383610832565b9050915050805190602001f35b3480156102b457600080fd5b506102cf60048036038101906102ca9190613441565b6109b0565b6040516102dc9190613489565b60405180910390f35b3480156102f157600080fd5b5061030c60048036038101906103079190613538565b610a21565b005b34801561031a57600080fd5b506103356004803603810190610330919061358b565b610cde565b60405161034291906135c7565b60405180910390f35b34801561035757600080fd5b50610372600480360381019061036d9190613618565b610cf6565b60405161037f91906136c6565b60405180910390f35b34801561039457600080fd5b5061039d610d0a565b6040516103aa91906135c7565b60405180910390f35b3480156103bf57600080fd5b506103da60048036038101906103d59190613830565b610d14565b6040516103e791906139b4565b60405180910390f35b3480156103fc57600080fd5b50610417600480360381019061041291906139d6565b610e1c565b6040516104249190613a12565b60405180910390f35b34801561043957600080fd5b50610454600480360381019061044f919061358b565b610ecf565b6040516104619190613a12565b60405180910390f35b34801561047657600080fd5b50610491600480360381019061048c9190613a2d565b610f02565b60405161049e9190613489565b60405180910390f35b3480156104b357600080fd5b506104ce60048036038101906104c991906139d6565b610f16565b6040516104db9190613b2b565b60405180910390f35b3480156104f057600080fd5b5061050b60048036038101906105069190613c1f565b610f43565b005b34801561051957600080fd5b50610534600480360381019061052f91906139d6565b610fa4565b60405161054191906136c6565b60405180910390f35b34801561055657600080fd5b50610571600480360381019061056c9190613d11565b610fb6565b60405161057e91906139b4565b60405180910390f35b34801561059357600080fd5b506105ae60048036038101906105a9919061358b565b611132565b6040516105bb9190613489565b60405180910390f35b3480156105d057600080fd5b506105eb60048036038101906105e69190613d5e565b611152565b6040516105f891906135c7565b60405180910390f35b34801561060d57600080fd5b506106166111a2565b005b34801561062457600080fd5b5061063f600480360381019061063a9190613ff2565b6111b6565b005b61065b600480360381019061065691906140f9565b6112ca565b005b61067760048036038101906106729190614155565b61131a565b005b34801561068557600080fd5b506106a0600480360381019061069b919061419e565b61143b565b005b3480156106ae57600080fd5b506106b7611697565b6040516106c49190613a12565b60405180910390f35b6106e760048036038101906106e2919061420d565b6116c0565b005b3480156106f557600080fd5b50610710600480360381019061070b9190613d5e565b611710565b60405161071d9190614343565b60405180910390f35b34801561073257600080fd5b5061074d60048036038101906107489190614365565b611760565b005b34801561075b57600080fd5b50610764611863565b60405161077191906135c7565b60405180910390f35b34801561078657600080fd5b506107a1600480360381019061079c919061440c565b611869565b005b3480156107af57600080fd5b506107ca60048036038101906107c5919061447b565b611881565b005b3480156107d857600080fd5b506107f360048036038101906107ee91906144fe565b611a52565b60405161080091906139b4565b60405180910390f35b34801561081557600080fd5b50610830600480360381019061082b9190613d5e565b611b03565b005b606060006108636000357fffffffff0000000000000000000000000000000000000000000000000000000016611b86565b509050600073ffffffffffffffffffffffffffffffffffffffff168173ffffffffffffffffffffffffffffffffffffffff16036108fb576000357fffffffff00000000000000000000000000000000000000000000000000000000166040517fbb370b2b0000000000000000000000000000000000000000000000000000000081526004016108f29190614556565b60405180910390fd5b6000808273ffffffffffffffffffffffffffffffffffffffff16348787333460405160200161092d949392919061460a565b6040516020818303038152906040526040516109499190614676565b60006040518083038185875af1925050503d8060008114610986576040519150601f19603f3d011682016040523d82523d6000602084013e61098b565b606091505b509150915081156109a1578093505050506109aa565b80518060208301fd5b92915050565b6000633a27170660e01b7bffffffffffffffffffffffffffffffffffffffffffffffffffffffff1916827bffffffffffffffffffffffffffffffffffffffffffffffffffffffff19161480610a0a5750610a0982611c40565b5b80610a1a5750610a1982611ca1565b5b9050919050565b3373ffffffffffffffffffffffffffffffffffffffff166007600085815260200190815260200160002060009054906101000a900473ffffffffffffffffffffffffffffffffffffffff1673ffffffffffffffffffffffffffffffffffffffff1614610ac2576040517f08c379a0000000000000000000000000000000000000000000000000000000008152600401610ab9906146ea565b60405180910390fd5b6008600084815260200190815260200160002060009054906101000a900460ff1615610b23576040517f08c379a0000000000000000000000000000000000000000000000000000000008152600401610b1a90614756565b60405180910390fd5b60008360001b9050610b48338483600160405180602001604052806000815250611d08565b6000600960008681526020019081526020016000205490506000600960008781526020019081526020016000208190555060016008600087815260200190815260200160002060006101000a81548160ff0219169083151502179055506000811115610c5c5760008473ffffffffffffffffffffffffffffffffffffffff1682604051610bd49061479c565b60006040518083038185875af1925050503d8060008114610c11576040519150601f19603f3d011682016040523d82523d6000602084013e610c16565b606091505b5050905080610c5a576040517f08c379a0000000000000000000000000000000000000000000000000000000008152600401610c51906147fd565b60405180910390fd5b505b60016008600087815260200190815260200160002060006101000a81548160ff0219169083151502179055508373ffffffffffffffffffffffffffffffffffffffff16857fcb2c52dd8818d9521b16e6d9c1eafc75e9c0857efe79bd0df13ad93e4da6921385604051610ccf91906135c7565b60405180910390a35050505050565b60096020528060005260406000206000915090505481565b6060610d02838361203f565b905092915050565b6000600254905090565b60608151835114610d51576040517f2fa71dfe00000000000000000000000000000000000000000000000000000000815260040160405180910390fd5b825167ffffffffffffffff811115610d6c57610d6b6136ed565b5b604051908082528060200260200182016040528015610d9f57816020015b6060815260200190600190039081610d8a5790505b50905060005b8351811015610e1557610dec848281518110610dc457610dc361481d565b5b6020026020010151848381518110610ddf57610dde61481d565b5b602002602001015161203f565b828281518110610dff57610dfe61481d565b5b6020026020010181905250806001019050610da5565b5092915050565b6000806003600084815260200190815260200160002060009054906101000a900473ffffffffffffffffffffffffffffffffffffffff169050600073ffffffffffffffffffffffffffffffffffffffff168173ffffffffffffffffffffffffffffffffffffffff1603610ec657826040517fae8f9a36000000000000000000000000000000000000000000000000000000008152600401610ebd919061485b565b60405180910390fd5b80915050919050565b60076020528060005260406000206000915054906101000a900473ffffffffffffffffffffffffffffffffffffffff1681565b6000610f0e838361210d565b905092915050565b6060610f218261217a565b610f3c600560008481526020019081526020016000206121c7565b9050919050565b610f4d338461210d565b610f905782336040517f1294d2a9000000000000000000000000000000000000000000000000000000008152600401610f87929190614876565b60405180910390fd5b610f9d8585858585611d08565b5050505050565b6060610faf826121e8565b9050919050565b60608282905067ffffffffffffffff811115610fd557610fd46136ed565b5b60405190808252806020026020018201604052801561100857816020015b6060815260200190600190039081610ff35790505b50905060005b8383905081101561112b576000803073ffffffffffffffffffffffffffffffffffffffff168686858181106110465761104561481d565b5b905060200281019061105891906148ae565b604051611066929190614911565b600060405180830381855af49150503d80600081146110a1576040519150601f19603f3d011682016040523d82523d6000602084013e6110a6565b606091505b5091509150816110ff5760008151146110c25780518082602001fd5b826040517f234eb8190000000000000000000000000000000000000000000000000000000081526004016110f691906135c7565b60405180910390fd5b808484815181106111135761111261481d565b5b6020026020010181905250826001019250505061100e565b5092915050565b60086020528060005260406000206000915054906101000a900460ff1681565b600061119b600460008473ffffffffffffffffffffffffffffffffffffffff1673ffffffffffffffffffffffffffffffffffffffff16815260200190815260200160002061228d565b9050919050565b6111aa6122a2565b6111b46000612320565b565b6000855190508451811415806111cd575083518114155b806111d9575082518114155b806111e5575081518114155b1561121c576040517f93a8311900000000000000000000000000000000000000000000000000000000815260040160405180910390fd5b60005b818110156112c1576112b687828151811061123d5761123c61481d565b5b60200260200101518783815181106112585761125761481d565b5b60200260200101518784815181106112735761127261481d565b5b602002602001015187858151811061128e5761128d61481d565b5b60200260200101518786815181106112a9576112a861481d565b5b6020026020010151610f43565b80600101905061121f565b50505050505050565b6112d26122a2565b6000341461130c576040517ff36ba73700000000000000000000000000000000000000000000000000000000815260040160405180910390fd5b61131682826123e4565b5050565b600060065460001b9050611340338260016040518060200160405280600081525061244e565b61136b817f9afb95cacc9f95858ec44aa8c3b685511002e30ae54415823f406128b85b238e846126ca565b3360076000600654815260200190815260200160002060006101000a81548173ffffffffffffffffffffffffffffffffffffffff021916908373ffffffffffffffffffffffffffffffffffffffff16021790555034600960006006548152602001908152602001600020819055503373ffffffffffffffffffffffffffffffffffffffff166006547f265711dffb2100716e957f1a6a8f230bd41e3c50d54f861eda7ba55f1ccc3cc260405160405180910390a36006600081548092919061143290614959565b91905055505050565b600061144683610e1c565b90503373ffffffffffffffffffffffffffffffffffffffff168173ffffffffffffffffffffffffffffffffffffffff16146114bc578083336040517f5b271ea20000000000000000000000000000000000000000000000000000000081526004016114b3939291906149a1565b60405180910390fd5b600073ffffffffffffffffffffffffffffffffffffffff168473ffffffffffffffffffffffffffffffffffffffff1603611522576040517f9577b8b300000000000000000000000000000000000000000000000000000000815260040160405180910390fd5b8373ffffffffffffffffffffffffffffffffffffffff168173ffffffffffffffffffffffffffffffffffffffff1603611587576040517f89fdad6200000000000000000000000000000000000000000000000000000000815260040160405180910390fd5b60006115ae856005600087815260200190815260200160002061275190919063ffffffff16565b9050806115f45784846040517fa7626b680000000000000000000000000000000000000000000000000000000081526004016115eb9291906149d8565b60405180910390fd5b838273ffffffffffffffffffffffffffffffffffffffff168673ffffffffffffffffffffffffffffffffffffffff167f1b1b58aa2ec0cec2228b2d37124556d41f5a1f7b12f089171f896cc2366712158660405161165291906136c6565b60405180910390a4600033856001866040516020016116749493929190614a01565b604051602081830303815290604052905061168f8682612781565b505050505050565b60008060009054906101000a900473ffffffffffffffffffffffffffffffffffffffff16905090565b6116c86122a2565b60003414611702576040517ff36ba73700000000000000000000000000000000000000000000000000000000815260040160405180910390fd5b61170c82826127b3565b5050565b6060611759600460008473ffffffffffffffffffffffffffffffffffffffff1673ffffffffffffffffffffffffffffffffffffffff168152602001908152602001600020612883565b9050919050565b6117686122a2565b8151835114158061177b57508051825114155b156117b2576040517f2fa71dfe00000000000000000000000000000000000000000000000000000000815260040160405180910390fd5b60008351036117ed576040517f80c9830500000000000000000000000000000000000000000000000000000000815260040160405180910390fd5b60005b835181101561185d5761185284828151811061180f5761180e61481d565b5b602002602001015184838151811061182a5761182961481d565b5b60200260200101518484815181106118455761184461481d565b5b60200260200101516126ca565b8060010190506117f0565b50505050565b60065481565b6118716122a2565b61187c8383836126ca565b505050565b600061188c84610e1c565b90508073ffffffffffffffffffffffffffffffffffffffff163373ffffffffffffffffffffffffffffffffffffffff1614611936573373ffffffffffffffffffffffffffffffffffffffff168573ffffffffffffffffffffffffffffffffffffffff1614611935573381856040517f760b5acd00000000000000000000000000000000000000000000000000000000815260040161192c93929190614a4d565b60405180910390fd5b5b600073ffffffffffffffffffffffffffffffffffffffff168573ffffffffffffffffffffffffffffffffffffffff160361199c576040517f9577b8b300000000000000000000000000000000000000000000000000000000815260040160405180910390fd5b8473ffffffffffffffffffffffffffffffffffffffff168173ffffffffffffffffffffffffffffffffffffffff1603611a01576040517f89fdad6200000000000000000000000000000000000000000000000000000000815260040160405180910390fd5b611a0e85828686866128a4565b8215611a4b5760008185600085604051602001611a2e9493929190614a01565b6040516020818303038152906040529050611a498682612781565b505b5050505050565b6060815167ffffffffffffffff811115611a6f57611a6e6136ed565b5b604051908082528060200260200182016040528015611aa257816020015b6060815260200190600190039081611a8d5790505b50905060005b8251811015611afd57611ad4838281518110611ac757611ac661481d565b5b60200260200101516121e8565b828281518110611ae757611ae661481d565b5b6020026020010181905250806001019050611aa8565b50919050565b611b0b6122a2565b600073ffffffffffffffffffffffffffffffffffffffff168173ffffffffffffffffffffffffffffffffffffffff1603611b7a576040517f08c379a0000000000000000000000000000000000000000000000000000000008152600401611b7190614af6565b60405180910390fd5b611b8381612320565b50565b6000806000611bc169cee78b4094da8601109660b01b857bffffffffffffffffffffffffffffffffffffffffffffffffffffffff1916612981565b90506000611bce826121e8565b90506014815114158015611be457506000815114155b15611c2657806040517f42bfe79f000000000000000000000000000000000000000000000000000000008152600401611c1d91906136c6565b60405180910390fd5b80611c3090614b74565b60601c6001935093505050915091565b600063a918fa6b60e01b7bffffffffffffffffffffffffffffffffffffffffffffffffffffffff1916827bffffffffffffffffffffffffffffffffffffffffffffffffffffffff19161480611c9a5750611c99826129c1565b5b9050919050565b600080611cb46301ffc9a760e01b611b86565b509050600073ffffffffffffffffffffffffffffffffffffffff168173ffffffffffffffffffffffffffffffffffffffff1603611cf5576000915050611d03565b611cff8184612a8c565b9150505b919050565b6000611d1384610e1c565b90508573ffffffffffffffffffffffffffffffffffffffff168173ffffffffffffffffffffffffffffffffffffffff1614611d89578084876040517f5b271ea2000000000000000000000000000000000000000000000000000000008152600401611d80939291906149a1565b60405180910390fd5b600073ffffffffffffffffffffffffffffffffffffffff168573ffffffffffffffffffffffffffffffffffffffff1603611def576040517f24ecef4d00000000000000000000000000000000000000000000000000000000815260040160405180910390fd5b611dfc8686868686612b4b565b6000611e0785610e1c565b90508073ffffffffffffffffffffffffffffffffffffffff168273ffffffffffffffffffffffffffffffffffffffff1614611e7d578482826040517f5a9c31d3000000000000000000000000000000000000000000000000000000008152600401611e7493929190614bdb565b60405180910390fd5b611e878786612b52565b611ed885600460008a73ffffffffffffffffffffffffffffffffffffffff1673ffffffffffffffffffffffffffffffffffffffff168152602001908152602001600020612bc890919063ffffffff16565b50611f2a85600460008973ffffffffffffffffffffffffffffffffffffffff1673ffffffffffffffffffffffffffffffffffffffff168152602001908152602001600020612bdf90919063ffffffff16565b50856003600087815260200190815260200160002060006101000a81548173ffffffffffffffffffffffffffffffffffffffff021916908373ffffffffffffffffffffffffffffffffffffffff160217905550848673ffffffffffffffffffffffffffffffffffffffff168873ffffffffffffffffffffffffffffffffffffffff167fb333c813a7426a7a11e2b190cad52c44119421594b47f6f32ace6d8c7207b2bf338888604051611fdf93929190614c12565b60405180910390a4611ff48787878787612bf6565b6000338888888760405160200161200f959493929190614c50565b604051602081830303815290604052905061202a8882612bfd565b612035878683612c2f565b5050505050505050565b6060600160008484604051602001612058929190614ccb565b604051602081830303815290604052805190602001208152602001908152602001600020805461208790614d26565b80601f01602080910402602001604051908101604052809291908181526020018280546120b390614d26565b80156121005780601f106120d557610100808354040283529160200191612100565b820191906000526020600020905b8154815290600101906020018083116120e357829003601f168201915b5050505050905092915050565b600061211882610e1c565b73ffffffffffffffffffffffffffffffffffffffff168373ffffffffffffffffffffffffffffffffffffffff16148061217257506121718360056000858152602001908152602001600020612d9590919063ffffffff16565b5b905092915050565b61218381612dc5565b6121c457806040517fae8f9a360000000000000000000000000000000000000000000000000000000081526004016121bb919061485b565b60405180910390fd5b50565b606060006121d783600001612e31565b905060608190508092505050919050565b606060016000838152602001908152602001600020805461220890614d26565b80601f016020809104026020016040519081016040528092919081815260200182805461223490614d26565b80156122815780601f1061225657610100808354040283529160200191612281565b820191906000526020600020905b81548152906001019060200180831161226457829003601f168201915b50505050509050919050565b600061229b82600001612e8d565b9050919050565b6122aa612e9e565b73ffffffffffffffffffffffffffffffffffffffff166122c8611697565b73ffffffffffffffffffffffffffffffffffffffff161461231e576040517f08c379a000000000000000000000000000000000000000000000000000000000815260040161231590614da3565b60405180910390fd5b565b60008060009054906101000a900473ffffffffffffffffffffffffffffffffffffffff169050816000806101000a81548173ffffffffffffffffffffffffffffffffffffffff021916908373ffffffffffffffffffffffffffffffffffffffff1602179055508173ffffffffffffffffffffffffffffffffffffffff168173ffffffffffffffffffffffffffffffffffffffff167f8be0079c531659141344cd1fd0a4f28419497f9722a3daafe3b4186f6b6457e060405160405180910390a35050565b7ff675e9361af1c1664c1868cfa3eb97672d6b1a513aa5b81dec34c9ee330e818d60001b8203612440576040517f3664800a00000000000000000000000000000000000000000000000000000000815260040160405180910390fd5b61244a8282612ea6565b5050565b600073ffffffffffffffffffffffffffffffffffffffff168473ffffffffffffffffffffffffffffffffffffffff16036124b4576040517f24ecef4d00000000000000000000000000000000000000000000000000000000815260040160405180910390fd5b6124bd83612dc5565b156124ff57826040517f34c7b5110000000000000000000000000000000000000000000000000000000081526004016124f6919061485b565b60405180910390fd5b61250d600085858585612b4b565b61251683612dc5565b1561255857826040517f34c7b51100000000000000000000000000000000000000000000000000000000815260040161254f919061485b565b60405180910390fd5b60026000815461256790614959565b919050819055506125bf83600460008773ffffffffffffffffffffffffffffffffffffffff1673ffffffffffffffffffffffffffffffffffffffff168152602001908152602001600020612bdf90919063ffffffff16565b50836003600085815260200190815260200160002060006101000a81548173ffffffffffffffffffffffffffffffffffffffff021916908373ffffffffffffffffffffffffffffffffffffffff160217905550828473ffffffffffffffffffffffffffffffffffffffff16600073ffffffffffffffffffffffffffffffffffffffff167fb333c813a7426a7a11e2b190cad52c44119421594b47f6f32ace6d8c7207b2bf33868660405161267593929190614c12565b60405180910390a461268b600085858585612bf6565b60003360008686856040516020016126a7959493929190614c50565b60405160208183030381529060405290506126c3858483612c2f565b5050505050565b806001600085856040516020016126e2929190614ccb565b60405160208183030381529060405280519060200120815260200190815260200160002090816127129190614f62565b5081837fa6e4251f855f750545fe414f120db91c76b88def14d120969e5bb2d3f05debbb8360405161274491906136c6565b60405180910390a3505050565b6000612779836000018373ffffffffffffffffffffffffffffffffffffffff1660001b613017565b905092915050565b6127af827f8a1c15a8799f71b547e08e2bcb2e85257e81b0a07eee2ce6712549eef1f0097060001b83613087565b5050565b80518251146127ee576040517f3bcc897900000000000000000000000000000000000000000000000000000000815260040160405180910390fd5b6000825103612829576040517f97da5f9500000000000000000000000000000000000000000000000000000000815260040160405180910390fd5b60005b825181101561287e5761287383828151811061284b5761284a61481d565b5b60200260200101518383815181106128665761286561481d565b5b60200260200101516123e4565b80600101905061282c565b505050565b6060600061289383600001612e31565b905060608190508092505050919050565b60006128cb866005600087815260200190815260200160002061314690919063ffffffff16565b9050806129115785846040517f4aa31a8c0000000000000000000000000000000000000000000000000000000081526004016129089291906149d8565b60405180910390fd5b838573ffffffffffffffffffffffffffffffffffffffff168773ffffffffffffffffffffffffffffffffffffffff167fc78cd419d6136f9f1c1c6aec1d3fae098cffaf8bc86314a8f2685e32fe574e3c8686604051612971929190615034565b60405180910390a4505050505050565b60008083600060f01b8460405160200161299d9392919061511f565b6040516020818303038152906040529050806129b890615171565b91505092915050565b600063629aa69460e01b7bffffffffffffffffffffffffffffffffffffffffffffffffffffffff1916827bffffffffffffffffffffffffffffffffffffffffffffffffffffffff19161480612a1b5750612a1a82612a22565b5b9050919050565b60007f01ffc9a7000000000000000000000000000000000000000000000000000000007bffffffffffffffffffffffffffffffffffffffffffffffffffffffff1916827bffffffffffffffffffffffffffffffffffffffffffffffffffffffff1916149050919050565b6000806301ffc9a760e01b83604051602401612aa89190614556565b604051602081830303815290604052907bffffffffffffffffffffffffffffffffffffffffffffffffffffffff19166020820180517bffffffffffffffffffffffffffffffffffffffffffffffffffffffff838183161783525050505090506000806000602060008551602087018a617530fa92503d91506000519050828015612b33575060208210155b8015612b3f5750600081115b94505050505092915050565b5050505050565b60006005600083815260200190815260200160002090506000612b7482613176565b90506000805b82811015612bc057612b9660008561318b90919063ffffffff16565b9150612bb58287876000604051806020016040528060008152506128a4565b806001019050612b7a565b505050505050565b6000612bd783600001836131a5565b905092915050565b6000612bee8360000183613017565b905092915050565b5050505050565b612c2b827fb23eae7e6d1564b295b4c3e3be402d9a2f0776c57bdf365903496f6fa481ab0060001b83613087565b5050565b612c4083636bb56a1460e01b612a8c565b15612cf1578273ffffffffffffffffffffffffffffffffffffffff16636bb56a147f0b084a55ebf70fd3c06fd755269dac2212c4d3f0f4d09079780bfa50c1b2984d60001b836040518363ffffffff1660e01b8152600401612ca39291906151d8565b6000604051808303816000875af1158015612cc2573d6000803e3d6000fd5b505050506040513d6000823e3d601f19601f82011682018060405250810190612ceb9190615278565b50612d90565b81612d8f5760008373ffffffffffffffffffffffffffffffffffffffff163b14612d5257826040517f4349776d000000000000000000000000000000000000000000000000000000008152600401612d499190613a12565b60405180910390fd5b826040517f03173137000000000000000000000000000000000000000000000000000000008152600401612d869190613a12565b60405180910390fd5b5b505050565b6000612dbd836000018373ffffffffffffffffffffffffffffffffffffffff1660001b6132b9565b905092915050565b60008073ffffffffffffffffffffffffffffffffffffffff166003600084815260200190815260200160002060009054906101000a900473ffffffffffffffffffffffffffffffffffffffff1673ffffffffffffffffffffffffffffffffffffffff1614159050919050565b606081600001805480602002602001604051908101604052809291908181526020018280548015612e8157602002820191906000526020600020905b815481526020019060010190808311612e6d575b50505050509050919050565b600081600001805490509050919050565b600033905090565b7fdeba1e292f8ba88238e10ab3c7f88bd4be4fac56cad5194b6ecceaf653468af160001b8203612f02576040517f85c169bd00000000000000000000000000000000000000000000000000000000815260040160405180910390fd5b7f2f0a68ab07768e01943a599e73362a0e17a63a72e94dd2e384d2c1d4db93275660001b8203612f5e576040517f76755b3800000000000000000000000000000000000000000000000000000000815260040160405180910390fd5b7fe0261fa95db2eb3b5439bd033cda66d56b96f92f243a8228fd87550ed7bdfdb360001b8203612fba576040517f4ef6d7fb00000000000000000000000000000000000000000000000000000000815260040160405180910390fd5b80600160008481526020019081526020016000209081612fda9190614f62565b50817fece574603820d07bc9b91f2a932baadf4628aabcb8afba49776529c14a6104b28260405161300b91906136c6565b60405180910390a25050565b600061302383836132b9565b61307c578260000182908060018154018082558091505060019003906000526020600020016000909190919091505582600001805490508360010160008481526020019081526020016000208190555060019050613081565b600090505b92915050565b6130b7636bb56a1460e01b8473ffffffffffffffffffffffffffffffffffffffff16612a8c90919063ffffffff16565b15613141578273ffffffffffffffffffffffffffffffffffffffff16636bb56a1483836040518363ffffffff1660e01b81526004016130f79291906151d8565b6000604051808303816000875af1158015613116573d6000803e3d6000fd5b505050506040513d6000823e3d601f19601f8201168201806040525081019061313f9190615278565b505b505050565b600061316e836000018373ffffffffffffffffffffffffffffffffffffffff1660001b6131a5565b905092915050565b600061318482600001612e8d565b9050919050565b600061319a83600001836132dc565b60001c905092915050565b600080836001016000848152602001908152602001600020549050600081146132ad5760006001826131d791906152c1565b90506000600186600001805490506131ef91906152c1565b905081811461325e5760008660000182815481106132105761320f61481d565b5b90600052602060002001549050808760000184815481106132345761323361481d565b5b90600052602060002001819055508387600101600083815260200190815260200160002081905550505b85600001805480613272576132716152f5565b5b6001900381819060005260206000200160009055905585600101600086815260200190815260200160002060009055600193505050506132b3565b60009150505b92915050565b600080836001016000848152602001908152602001600020541415905092915050565b60008260000182815481106132f4576132f361481d565b5b9060005260206000200154905092915050565b600082825260208201905092915050565b60008082015250565b600061332e600483613307565b915061333982613318565b602082019050919050565b6000602082019050818103600083015261335d81613321565b9050919050565b82818337600083830152505050565b6000601f19601f8301169050919050565b60006133908385613307565b935061339d838584613364565b6133a683613373565b840190509392505050565b600060208201905081810360008301526133cc818486613384565b90509392505050565b6000604051905090565b600080fd5b600080fd5b60007fffffffff0000000000000000000000000000000000000000000000000000000082169050919050565b61341e816133e9565b811461342957600080fd5b50565b60008135905061343b81613415565b92915050565b600060208284031215613457576134566133df565b5b60006134658482850161342c565b91505092915050565b60008115159050919050565b6134838161346e565b82525050565b600060208201905061349e600083018461347a565b92915050565b6000819050919050565b6134b7816134a4565b81146134c257600080fd5b50565b6000813590506134d4816134ae565b92915050565b600073ffffffffffffffffffffffffffffffffffffffff82169050919050565b6000613505826134da565b9050919050565b613515816134fa565b811461352057600080fd5b50565b6000813590506135328161350c565b92915050565b600080600060608486031215613551576135506133df565b5b600061355f868287016134c5565b935050602061357086828701613523565b9250506040613581868287016134c5565b9150509250925092565b6000602082840312156135a1576135a06133df565b5b60006135af848285016134c5565b91505092915050565b6135c1816134a4565b82525050565b60006020820190506135dc60008301846135b8565b92915050565b6000819050919050565b6135f5816135e2565b811461360057600080fd5b50565b600081359050613612816135ec565b92915050565b6000806040838503121561362f5761362e6133df565b5b600061363d85828601613603565b925050602061364e85828601613603565b9150509250929050565b600081519050919050565b60005b83811015613681578082015181840152602081019050613666565b60008484015250505050565b600061369882613658565b6136a28185613307565b93506136b2818560208601613663565b6136bb81613373565b840191505092915050565b600060208201905081810360008301526136e0818461368d565b905092915050565b600080fd5b7f4e487b7100000000000000000000000000000000000000000000000000000000600052604160045260246000fd5b61372582613373565b810181811067ffffffffffffffff82111715613744576137436136ed565b5b80604052505050565b60006137576133d5565b9050613763828261371c565b919050565b600067ffffffffffffffff821115613783576137826136ed565b5b602082029050602081019050919050565b600080fd5b60006137ac6137a784613768565b61374d565b905080838252602082019050602084028301858111156137cf576137ce613794565b5b835b818110156137f857806137e48882613603565b8452602084019350506020810190506137d1565b5050509392505050565b600082601f830112613817576138166136e8565b5b8135613827848260208601613799565b91505092915050565b60008060408385031215613847576138466133df565b5b600083013567ffffffffffffffff811115613865576138646133e4565b5b61387185828601613802565b925050602083013567ffffffffffffffff811115613892576138916133e4565b5b61389e85828601613802565b9150509250929050565b600081519050919050565b600082825260208201905092915050565b6000819050602082019050919050565b600082825260208201905092915050565b60006138f082613658565b6138fa81856138d4565b935061390a818560208601613663565b61391381613373565b840191505092915050565b600061392a83836138e5565b905092915050565b6000602082019050919050565b600061394a826138a8565b61395481856138b3565b935083602082028501613966856138c4565b8060005b858110156139a25784840389528151613983858261391e565b945061398e83613932565b925060208a0199505060018101905061396a565b50829750879550505050505092915050565b600060208201905081810360008301526139ce818461393f565b905092915050565b6000602082840312156139ec576139eb6133df565b5b60006139fa84828501613603565b91505092915050565b613a0c816134fa565b82525050565b6000602082019050613a276000830184613a03565b92915050565b60008060408385031215613a4457613a436133df565b5b6000613a5285828601613523565b9250506020613a6385828601613603565b9150509250929050565b600081519050919050565b600082825260208201905092915050565b6000819050602082019050919050565b613aa2816134fa565b82525050565b6000613ab48383613a99565b60208301905092915050565b6000602082019050919050565b6000613ad882613a6d565b613ae28185613a78565b9350613aed83613a89565b8060005b83811015613b1e578151613b058882613aa8565b9750613b1083613ac0565b925050600181019050613af1565b5085935050505092915050565b60006020820190508181036000830152613b458184613acd565b905092915050565b613b568161346e565b8114613b6157600080fd5b50565b600081359050613b7381613b4d565b92915050565b600080fd5b600067ffffffffffffffff821115613b9957613b986136ed565b5b613ba282613373565b9050602081019050919050565b6000613bc2613bbd84613b7e565b61374d565b905082815260208101848484011115613bde57613bdd613b79565b5b613be9848285613364565b509392505050565b600082601f830112613c0657613c056136e8565b5b8135613c16848260208601613baf565b91505092915050565b600080600080600060a08688031215613c3b57613c3a6133df565b5b6000613c4988828901613523565b9550506020613c5a88828901613523565b9450506040613c6b88828901613603565b9350506060613c7c88828901613b64565b925050608086013567ffffffffffffffff811115613c9d57613c9c6133e4565b5b613ca988828901613bf1565b9150509295509295909350565b600080fd5b60008083601f840112613cd157613cd06136e8565b5b8235905067ffffffffffffffff811115613cee57613ced613cb6565b5b602083019150836020820283011115613d0a57613d09613794565b5b9250929050565b60008060208385031215613d2857613d276133df565b5b600083013567ffffffffffffffff811115613d4657613d456133e4565b5b613d5285828601613cbb565b92509250509250929050565b600060208284031215613d7457613d736133df565b5b6000613d8284828501613523565b91505092915050565b600067ffffffffffffffff821115613da657613da56136ed565b5b602082029050602081019050919050565b6000613dca613dc584613d8b565b61374d565b90508083825260208201905060208402830185811115613ded57613dec613794565b5b835b81811015613e165780613e028882613523565b845260208401935050602081019050613def565b5050509392505050565b600082601f830112613e3557613e346136e8565b5b8135613e45848260208601613db7565b91505092915050565b600067ffffffffffffffff821115613e6957613e686136ed565b5b602082029050602081019050919050565b6000613e8d613e8884613e4e565b61374d565b90508083825260208201905060208402830185811115613eb057613eaf613794565b5b835b81811015613ed95780613ec58882613b64565b845260208401935050602081019050613eb2565b5050509392505050565b600082601f830112613ef857613ef76136e8565b5b8135613f08848260208601613e7a565b91505092915050565b600067ffffffffffffffff821115613f2c57613f2b6136ed565b5b602082029050602081019050919050565b6000613f50613f4b84613f11565b61374d565b90508083825260208201905060208402830185811115613f7357613f72613794565b5b835b81811015613fba57803567ffffffffffffffff811115613f9857613f976136e8565b5b808601613fa58982613bf1565b85526020850194505050602081019050613f75565b5050509392505050565b600082601f830112613fd957613fd86136e8565b5b8135613fe9848260208601613f3d565b91505092915050565b600080600080600060a0868803121561400e5761400d6133df565b5b600086013567ffffffffffffffff81111561402c5761402b6133e4565b5b61403888828901613e20565b955050602086013567ffffffffffffffff811115614059576140586133e4565b5b61406588828901613e20565b945050604086013567ffffffffffffffff811115614086576140856133e4565b5b61409288828901613802565b935050606086013567ffffffffffffffff8111156140b3576140b26133e4565b5b6140bf88828901613ee3565b925050608086013567ffffffffffffffff8111156140e0576140df6133e4565b5b6140ec88828901613fc4565b9150509295509295909350565b600080604083850312156141105761410f6133df565b5b600061411e85828601613603565b925050602083013567ffffffffffffffff81111561413f5761413e6133e4565b5b61414b85828601613bf1565b9150509250929050565b60006020828403121561416b5761416a6133df565b5b600082013567ffffffffffffffff811115614189576141886133e4565b5b61419584828501613bf1565b91505092915050565b6000806000606084860312156141b7576141b66133df565b5b60006141c586828701613523565b93505060206141d686828701613603565b925050604084013567ffffffffffffffff8111156141f7576141f66133e4565b5b61420386828701613bf1565b9150509250925092565b60008060408385031215614224576142236133df565b5b600083013567ffffffffffffffff811115614242576142416133e4565b5b61424e85828601613802565b925050602083013567ffffffffffffffff81111561426f5761426e6133e4565b5b61427b85828601613fc4565b9150509250929050565b600081519050919050565b600082825260208201905092915050565b6000819050602082019050919050565b6142ba816135e2565b82525050565b60006142cc83836142b1565b60208301905092915050565b6000602082019050919050565b60006142f082614285565b6142fa8185614290565b9350614305836142a1565b8060005b8381101561433657815161431d88826142c0565b9750614328836142d8565b925050600181019050614309565b5085935050505092915050565b6000602082019050818103600083015261435d81846142e5565b905092915050565b60008060006060848603121561437e5761437d6133df565b5b600084013567ffffffffffffffff81111561439c5761439b6133e4565b5b6143a886828701613802565b935050602084013567ffffffffffffffff8111156143c9576143c86133e4565b5b6143d586828701613802565b925050604084013567ffffffffffffffff8111156143f6576143f56133e4565b5b61440286828701613fc4565b9150509250925092565b600080600060608486031215614425576144246133df565b5b600061443386828701613603565b935050602061444486828701613603565b925050604084013567ffffffffffffffff811115614465576144646133e4565b5b61447186828701613bf1565b9150509250925092565b60008060008060808587031215614495576144946133df565b5b60006144a387828801613523565b94505060206144b487828801613603565b93505060406144c587828801613b64565b925050606085013567ffffffffffffffff8111156144e6576144e56133e4565b5b6144f287828801613bf1565b91505092959194509250565b600060208284031215614514576145136133df565b5b600082013567ffffffffffffffff811115614532576145316133e4565b5b61453e84828501613802565b91505092915050565b614550816133e9565b82525050565b600060208201905061456b6000830184614547565b92915050565b600081905092915050565b60006145888385614571565b9350614595838584613364565b82840190509392505050565b60008160601b9050919050565b60006145b9826145a1565b9050919050565b60006145cb826145ae565b9050919050565b6145e36145de826134fa565b6145c0565b82525050565b6000819050919050565b6146046145ff826134a4565b6145e9565b82525050565b600061461782868861457c565b915061462382856145d2565b60148201915061463382846145f3565b60208201915081905095945050505050565b600061465082613658565b61465a8185614571565b935061466a818560208601613663565b80840191505092915050565b60006146828284614645565b915081905092915050565b600082825260208201905092915050565b7f4e6f7420796f7572207175657374000000000000000000000000000000000000600082015250565b60006146d4600e8361468d565b91506146df8261469e565b602082019050919050565b60006020820190508181036000830152614703816146c7565b9050919050565b7f517565737420616c726561647920636f6d706c65746564000000000000000000600082015250565b600061474060178361468d565b915061474b8261470a565b602082019050919050565b6000602082019050818103600083015261476f81614733565b9050919050565b50565b6000614786600083614571565b915061479182614776565b600082019050919050565b60006147a782614779565b9150819050919050565b7f526577617264207472616e73666572206661696c656400000000000000000000600082015250565b60006147e760168361468d565b91506147f2826147b1565b602082019050919050565b60006020820190508181036000830152614816816147da565b9050919050565b7f4e487b7100000000000000000000000000000000000000000000000000000000600052603260045260246000fd5b614855816135e2565b82525050565b6000602082019050614870600083018461484c565b92915050565b600060408201905061488b600083018561484c565b6148986020830184613a03565b9392505050565b600080fd5b600080fd5b600080fd5b600080833560016020038436030381126148cb576148ca61489f565b5b80840192508235915067ffffffffffffffff8211156148ed576148ec6148a4565b5b602083019250600182023603831315614909576149086148a9565b5b509250929050565b600061491e82848661457c565b91508190509392505050565b7f4e487b7100000000000000000000000000000000000000000000000000000000600052601160045260246000fd5b6000614964826134a4565b91507fffffffffffffffffffffffffffffffffffffffffffffffffffffffffffffffff82036149965761499561492a565b5b600182019050919050565b60006060820190506149b66000830186613a03565b6149c3602083018561484c565b6149d06040830184613a03565b949350505050565b60006040820190506149ed6000830185613a03565b6149fa602083018461484c565b9392505050565b6000608082019050614a166000830187613a03565b614a23602083018661484c565b614a30604083018561347a565b8181036060830152614a42818461368d565b905095945050505050565b6000606082019050614a626000830186613a03565b614a6f6020830185613a03565b614a7c604083018461484c565b949350505050565b7f4f776e61626c653a206e6577206f776e657220697320746865207a65726f206160008201527f6464726573730000000000000000000000000000000000000000000000000000602082015250565b6000614ae060268361468d565b9150614aeb82614a84565b604082019050919050565b60006020820190508181036000830152614b0f81614ad3565b9050919050565b6000819050602082019050919050565b60007fffffffffffffffffffffffffffffffffffffffff00000000000000000000000082169050919050565b6000614b5e8251614b26565b80915050919050565b600082821b905092915050565b6000614b7f82613658565b82614b8984614b16565b9050614b9481614b52565b92506014821015614bd457614bcf7fffffffffffffffffffffffffffffffffffffffff00000000000000000000000083601403600802614b67565b831692505b5050919050565b6000606082019050614bf0600083018661484c565b614bfd6020830185613a03565b614c0a6040830184613a03565b949350505050565b6000606082019050614c276000830186613a03565b614c34602083018561347a565b8181036040830152614c46818461368d565b9050949350505050565b600060a082019050614c656000830188613a03565b614c726020830187613a03565b614c7f6040830186613a03565b614c8c606083018561484c565b8181036080830152614c9e818461368d565b90509695505050505050565b6000819050919050565b614cc5614cc0826135e2565b614caa565b82525050565b6000614cd78285614cb4565b602082019150614ce78284614cb4565b6020820191508190509392505050565b7f4e487b7100000000000000000000000000000000000000000000000000000000600052602260045260246000fd5b60006002820490506001821680614d3e57607f821691505b602082108103614d5157614d50614cf7565b5b50919050565b7f4f776e61626c653a2063616c6c6572206973206e6f7420746865206f776e6572600082015250565b6000614d8d60208361468d565b9150614d9882614d57565b602082019050919050565b60006020820190508181036000830152614dbc81614d80565b9050919050565b60008190508160005260206000209050919050565b60006020601f8301049050919050565b600060088302614e187fffffffffffffffffffffffffffffffffffffffffffffffffffffffffffffffff82614b67565b614e228683614b67565b95508019841693508086168417925050509392505050565b6000819050919050565b6000614e5f614e5a614e55846134a4565b614e3a565b6134a4565b9050919050565b6000819050919050565b614e7983614e44565b614e8d614e8582614e66565b848454614de8565b825550505050565b600090565b614ea2614e95565b614ead818484614e70565b505050565b5b81811015614ed157614ec6600082614e9a565b600181019050614eb3565b5050565b601f821115614f1657614ee781614dc3565b614ef084614dd8565b81016020851015614eff578190505b614f13614f0b85614dd8565b830182614eb2565b50505b505050565b600082821c905092915050565b6000614f3960001984600802614f1b565b1980831691505092915050565b6000614f528383614f28565b9150826002028217905092915050565b614f6b82613658565b67ffffffffffffffff811115614f8457614f836136ed565b5b614f8e8254614d26565b614f99828285614ed5565b600060209050601f831160018114614fcc5760008415614fba578287015190505b614fc48582614f46565b86555061502c565b601f198416614fda86614dc3565b60005b8281101561500257848901518255600182019150602085019450602081019050614fdd565b8683101561501f578489015161501b601f891682614f28565b8355505b6001600288020188555050505b505050505050565b6000604082019050615049600083018561347a565b818103602083015261505b818461368d565b90509392505050565b60007fffffffffffffffffffff0000000000000000000000000000000000000000000082169050919050565b6000819050919050565b6150ab6150a682615064565b615090565b82525050565b60007fffff00000000000000000000000000000000000000000000000000000000000082169050919050565b6000819050919050565b6150f86150f3826150b1565b6150dd565b82525050565b6000819050919050565b61511961511482614b26565b6150fe565b82525050565b600061512b828661509a565b600a8201915061513b82856150e7565b60028201915061514b8284615108565b601482019150819050949350505050565b600061516882516135e2565b80915050919050565b600061517c82613658565b8261518684614b16565b90506151918161515c565b925060208210156151d1576151cc7fffffffffffffffffffffffffffffffffffffffffffffffffffffffffffffffff83602003600802614b67565b831692505b5050919050565b60006040820190506151ed600083018561484c565b81810360208301526151ff818461368d565b90509392505050565b600061521b61521684613b7e565b61374d565b90508281526020810184848401111561523757615236613b79565b5b615242848285613663565b509392505050565b600082601f83011261525f5761525e6136e8565b5b815161526f848260208601615208565b91505092915050565b60006020828403121561528e5761528d6133df565b5b600082015167ffffffffffffffff8111156152ac576152ab6133e4565b5b6152b88482850161524a565b91505092915050565b60006152cc826134a4565b91506152d7836134a4565b92508282039050818111156152ef576152ee61492a565b5b92915050565b7f4e487b7100000000000000000000000000000000000000000000000000000000600052603160045260246000fdfea2646970667358221220a51f4a88dcfff58e85c6dc7e2318c83dc761a875b9b606e4bc4feaa80068620a64736f6c63430008180033",
  "linkReferences": {},
  "deployedLinkReferences": {}
}