{
  "_format": "hh-sol-artifact-1",
  "contractName": "QuestBoard",
  "sourceName": "contracts/Questboard.sol",
  "abi": [
    {
      "inputs": [
        {
          "internalType": "string",
          "name": "name_",
          "type": "string"
        },
        {
          "internalType": "string",
          "name": "symbol_",
          "type": "string"
        },
        {
          "internalType": "address",
          "name": "newOwner_",
          "type": "address"
        },
        {
          "internalType": "uint8",
          "name": "lsp4TokenType_",
          "type": "uint8"
        },
        {
          "internalType": "uint8",
          "name": "lsp8TokenIdFormat_",
          "type": "uint8"
        }
      ],
      "stateMutability": "nonpayable",
      "type": "constructor"
    },
    {
      "inputs": [],
      "name": "ERC725Y_DataKeysValuesEmptyArray",
      "type": "error"
    },
    {
      "inputs": [],
      "name": "ERC725Y_DataKeysValuesLengthMismatch",
      "type": "error"
    },
    {
      "inputs": [],
      "name": "ERC725Y_MsgValueDisallowed",
      "type": "error"
    },
    {
      "inputs": [
        {
          "internalType": "bytes",
          "name": "storedData",
          "type": "bytes"
        }
      ],
      "name": "InvalidExtensionAddress",
      "type": "error"
    },
    {
      "inputs": [
        {
          "internalType": "bytes",
          "name": "data",
          "type": "bytes"
        }
      ],
      "name": "InvalidFunctionSelector",
      "type": "error"
    },
    {
      "inputs": [],
      "name": "LSP4TokenNameNotEditable",
      "type": "error"
    },
    {
      "inputs": [],
      "name": "LSP4TokenSymbolNotEditable",
      "type": "error"
    },
    {
      "inputs": [],
      "name": "LSP4TokenTypeNotEditable",
      "type": "error"
    },
    {
      "inputs": [
        {
          "internalType": "uint256",
          "name": "callIndex",
          "type": "uint256"
        }
      ],
      "name": "LSP8BatchCallFailed",
      "type": "error"
    },
    {
      "inputs": [],
      "name": "LSP8CannotSendToAddressZero",
      "type": "error"
    },
    {
      "inputs": [],
      "name": "LSP8CannotUseAddressZeroAsOperator",
      "type": "error"
    },
    {
      "inputs": [],
      "name": "LSP8InvalidTransferBatch",
      "type": "error"
    },
    {
      "inputs": [
        {
          "internalType": "bytes32",
          "name": "tokenId",
          "type": "bytes32"
        }
      ],
      "name": "LSP8NonExistentTokenId",
      "type": "error"
    },
    {
      "inputs": [
        {
          "internalType": "address",
          "name": "operator",
          "type": "address"
        },
        {
          "internalType": "bytes32",
          "name": "tokenId",
          "type": "bytes32"
        }
      ],
      "name": "LSP8NonExistingOperator",
      "type": "error"
    },
    {
      "inputs": [
        {
          "internalType": "bytes32",
          "name": "tokenId",
          "type": "bytes32"
        },
        {
          "internalType": "address",
          "name": "caller",
          "type": "address"
        }
      ],
      "name": "LSP8NotTokenOperator",
      "type": "error"
    },
    {
      "inputs": [
        {
          "internalType": "address",
          "name": "tokenOwner",
          "type": "address"
        },
        {
          "internalType": "bytes32",
          "name": "tokenId",
          "type": "bytes32"
        },
        {
          "internalType": "address",
          "name": "caller",
          "type": "address"
        }
      ],
      "name": "LSP8NotTokenOwner",
      "type": "error"
    },
    {
      "inputs": [
        {
          "internalType": "address",
          "name": "tokenReceiver",
          "type": "address"
        }
      ],
      "name": "LSP8NotifyTokenReceiverContractMissingLSP1Interface",
      "type": "error"
    },
    {
      "inputs": [
        {
          "internalType": "address",
          "name": "tokenReceiver",
          "type": "address"
        }
      ],
      "name": "LSP8NotifyTokenReceiverIsEOA",
      "type": "error"
    },
    {
      "inputs": [
        {
          "internalType": "address",
          "name": "operator",
          "type": "address"
        },
        {
          "internalType": "bytes32",
          "name": "tokenId",
          "type": "bytes32"
        }
      ],
      "name": "LSP8OperatorAlreadyAuthorized",
      "type": "error"
    },
    {
      "inputs": [
        {
          "internalType": "address",
          "name": "caller",
          "type": "address"
        },
        {
          "internalType": "address",
          "name": "tokenOwner",
          "type": "address"
        },
        {
          "internalType": "bytes32",
          "name": "tokenId",
          "type": "bytes32"
        }
      ],
      "name": "LSP8RevokeOperatorNotAuthorized",
      "type": "error"
    },
    {
      "inputs": [],
      "name": "LSP8TokenContractCannotHoldValue",
      "type": "error"
    },
    {
      "inputs": [
        {
          "internalType": "bytes32",
          "name": "tokenId",
          "type": "bytes32"
        }
      ],
      "name": "LSP8TokenIdAlreadyMinted",
      "type": "error"
    },
    {
      "inputs": [],
      "name": "LSP8TokenIdFormatNotEditable",
      "type": "error"
    },
    {
      "inputs": [],
      "name": "LSP8TokenIdsDataEmptyArray",
      "type": "error"
    },
    {
      "inputs": [],
      "name": "LSP8TokenIdsDataLengthMismatch",
      "type": "error"
    },
    {
      "inputs": [],
      "name": "LSP8TokenOwnerCannotBeOperator",
      "type": "error"
    },
    {
      "inputs": [
        {
          "internalType": "bytes32",
          "name": "tokenId",
          "type": "bytes32"
        },
        {
          "internalType": "address",
          "name": "oldOwner",
          "type": "address"
        },
        {
          "internalType": "address",
          "name": "newOwner",
          "type": "address"
        }
      ],
      "name": "LSP8TokenOwnerChanged",
      "type": "error"
    },
    {
      "inputs": [
        {
          "internalType": "bytes4",
          "name": "functionSelector",
          "type": "bytes4"
        }
      ],
      "name": "NoExtensionFoundForFunctionSelector",
      "type": "error"
    },
    {
      "inputs": [],
      "name": "OwnableCannotSetZeroAddressAsOwner",
      "type": "error"
    },
    {
      "anonymous": false,
      "inputs": [
        {
          "indexed": true,
          "internalType": "bytes32",
          "name": "dataKey",
          "type": "bytes32"
        },
        {
          "indexed": false,
          "internalType": "bytes",
          "name": "dataValue",
          "type": "bytes"
        }
      ],
      "name": "DataChanged",
      "type": "event"
    },
    {
      "anonymous": false,
      "inputs": [
        {
          "indexed": true,
          "internalType": "address",
          "name": "operator",
          "type": "address"
        },
        {
          "indexed": true,
          "internalType": "address",
          "name": "tokenOwner",
          "type": "address"
        },
        {
          "indexed": true,
          "internalType": "bytes32",
          "name": "tokenId",
          "type": "bytes32"
        },
        {
          "indexed": false,
          "internalType": "bytes",
          "name": "operatorNotificationData",
          "type": "bytes"
        }
      ],
      "name": "OperatorAuthorizationChanged",
      "type": "event"
    },
    {
      "anonymous": false,
      "inputs": [
        {
          "indexed": true,
          "internalType": "address",
          "name": "operator",
          "type": "address"
        },
        {
          "indexed": true,
          "internalType": "address",
          "name": "tokenOwner",
          "type": "address"
        },
        {
          "indexed": true,
          "internalType": "bytes32",
          "name": "tokenId",
          "type": "bytes32"
        },
        {
          "indexed": false,
          "internalType": "bool",
          "name": "notified",
          "type": "bool"
        },
        {
          "indexed": false,
          "internalType": "bytes",
          "name": "operatorNotificationData",
          "type": "bytes"
        }
      ],
      "name": "OperatorRevoked",
      "type": "event"
    },
    {
      "anonymous": false,
      "inputs": [
        {
          "indexed": true,
          "internalType": "address",
          "name": "previousOwner",
          "type": "address"
        },
        {
          "indexed": true,
          "internalType": "address",
          "name": "newOwner",
          "type": "address"
        }
      ],
      "name": "OwnershipTransferred",
      "type": "event"
    },
    {
      "anonymous": false,
      "inputs": [
        {
          "indexed": true,
          "internalType": "uint256",
          "name": "questId",
          "type": "uint256"
        },
        {
          "indexed": true,
          "internalType": "address",
          "name": "winner",
          "type": "address"
        },
        {
          "indexed": false,
          "internalType": "uint256",
          "name": "xpAwarded",
          "type": "uint256"
        }
      ],
      "name": "QuestCompleted",
      "type": "event"
    },
    {
      "anonymous": false,
      "inputs": [
        {
          "indexed": true,
          "internalType": "uint256",
          "name": "questId",
          "type": "uint256"
        },
        {
          "indexed": true,
          "internalType": "address",
          "name": "creator",
          "type": "address"
        }
      ],
      "name": "QuestCreated",
      "type": "event"
    },
    {
      "anonymous": false,
      "inputs": [
        {
          "indexed": true,
          "internalType": "bytes32",
          "name": "tokenId",
          "type": "bytes32"
        },
        {
          "indexed": true,
          "internalType": "bytes32",
          "name": "dataKey",
          "type": "bytes32"
        },
        {
          "indexed": false,
          "internalType": "bytes",
          "name": "dataValue",
          "type": "bytes"
        }
      ],
      "name": "TokenIdDataChanged",
      "type": "event"
    },
    {
      "anonymous": false,
      "inputs": [
        {
          "indexed": false,
          "internalType": "address",
          "name": "operator",
          "type": "address"
        },
        {
          "indexed": true,
          "internalType": "address",
          "name": "from",
          "type": "address"
        },
        {
          "indexed": true,
          "internalType": "address",
          "name": "to",
          "type": "address"
        },
        {
          "indexed": true,
          "internalType": "bytes32",
          "name": "tokenId",
          "type": "bytes32"
        },
        {
          "indexed": false,
          "internalType": "bool",
          "name": "force",
          "type": "bool"
        },
        {
          "indexed": false,
          "internalType": "bytes",
          "name": "data",
          "type": "bytes"
        }
      ],
      "name": "Transfer",
      "type": "event"
    },
    {
      "stateMutability": "payable",
      "type": "fallback"
    },
    {
      "inputs": [
        {
          "internalType": "address",
          "name": "operator",
          "type": "address"
        },
        {
          "internalType": "bytes32",
          "name": "tokenId",
          "type": "bytes32"
        },
        {
          "internalType": "bytes",
          "name": "operatorNotificationData",
          "type": "bytes"
        }
      ],
      "name": "authorizeOperator",
      "outputs": [],
      "stateMutability": "nonpayable",
      "type": "function"
    },
    {
      "inputs": [
        {
          "internalType": "address",
          "name": "tokenOwner",
          "type": "address"
        }
      ],
      "name": "balanceOf",
      "outputs": [
        {
          "internalType": "uint256",
          "name": "",
          "type": "uint256"
        }
      ],
      "stateMutability": "view",
      "type": "function"
    },
    {
      "inputs": [
        {
          "internalType": "bytes[]",
          "name": "data",
          "type": "bytes[]"
        }
      ],
      "name": "batchCalls",
      "outputs": [
        {
          "internalType": "bytes[]",
          "name": "results",
          "type": "bytes[]"
        }
      ],
      "stateMutability": "nonpayable",
      "type": "function"
    },
    {
      "inputs": [
        {
          "internalType": "uint256",
          "name": "questId",
          "type": "uint256"
        },
        {
          "internalType": "address",
          "name": "winner",
          "type": "address"
        },
        {
          "internalType": "uint256",
          "name": "xp",
          "type": "uint256"
        }
      ],
      "name": "completeQuest",
      "outputs": [],
      "stateMutability": "nonpayable",
      "type": "function"
    },
    {
      "inputs": [],
      "name": "createQuest",
      "outputs": [],
      "stateMutability": "payable",
      "type": "function"
    },
    {
      "inputs": [
        {
          "internalType": "bytes32",
          "name": "dataKey",
          "type": "bytes32"
        }
      ],
      "name": "getData",
      "outputs": [
        {
          "internalType": "bytes",
          "name": "dataValue",
          "type": "bytes"
        }
      ],
      "stateMutability": "view",
      "type": "function"
    },
    {
      "inputs": [
        {
          "internalType": "bytes32[]",
          "name": "dataKeys",
          "type": "bytes32[]"
        }
      ],
      "name": "getDataBatch",
      "outputs": [
        {
          "internalType": "bytes[]",
          "name": "dataValues",
          "type": "bytes[]"
        }
      ],
      "stateMutability": "view",
      "type": "function"
    },
    {
      "inputs": [
        {
          "internalType": "bytes32[]",
          "name": "tokenIds",
          "type": "bytes32[]"
        },
        {
          "internalType": "bytes32[]",
          "name": "dataKeys",
          "type": "bytes32[]"
        }
      ],
      "name": "getDataBatchForTokenIds",
      "outputs": [
        {
          "internalType": "bytes[]",
          "name": "dataValues",
          "type": "bytes[]"
        }
      ],
      "stateMutability": "view",
      "type": "function"
    },
    {
      "inputs": [
        {
          "internalType": "bytes32",
          "name": "tokenId",
          "type": "bytes32"
        },
        {
          "internalType": "bytes32",
          "name": "dataKey",
          "type": "bytes32"
        }
      ],
      "name": "getDataForTokenId",
      "outputs": [
        {
          "internalType": "bytes",
          "name": "dataValue",
          "type": "bytes"
        }
      ],
      "stateMutability": "view",
      "type": "function"
    },
    {
      "inputs": [
        {
          "internalType": "bytes32",
          "name": "tokenId",
          "type": "bytes32"
        }
      ],
      "name": "getOperatorsOf",
      "outputs": [
        {
          "internalType": "address[]",
          "name": "",
          "type": "address[]"
        }
      ],
      "stateMutability": "view",
      "type": "function"
    },
    {
      "inputs": [
        {
          "internalType": "address",
          "name": "operator",
          "type": "address"
        },
        {
          "internalType": "bytes32",
          "name": "tokenId",
          "type": "bytes32"
        }
      ],
      "name": "isOperatorFor",
      "outputs": [
        {
          "internalType": "bool",
          "name": "",
          "type": "bool"
        }
      ],
      "stateMutability": "view",
      "type": "function"
    },
    {
      "inputs": [],
      "name": "nextQuestId",
      "outputs": [
        {
          "internalType": "uint256",
          "name": "",
          "type": "uint256"
        }
      ],
      "stateMutability": "view",
      "type": "function"
    },
    {
      "inputs": [],
      "name": "owner",
      "outputs": [
        {
          "internalType": "address",
          "name": "",
          "type": "address"
        }
      ],
      "stateMutability": "view",
      "type": "function"
    },
    {
      "inputs": [
        {
          "internalType": "uint256",
          "name": "",
          "type": "uint256"
        }
      ],
      "name": "questCompleted",
      "outputs": [
        {
          "internalType": "bool",
          "name": "",
          "type": "bool"
        }
      ],
      "stateMutability": "view",
      "type": "function"
    },
    {
      "inputs": [
        {
          "internalType": "uint256",
          "name": "",
          "type": "uint256"
        }
      ],
      "name": "questCreators",
      "outputs": [
        {
          "internalType": "address",
          "name": "",
          "type": "address"
        }
      ],
      "stateMutability": "view",
      "type": "function"
    },
    {
      "inputs": [
        {
          "internalType": "uint256",
          "name": "",
          "type": "uint256"
        }
      ],
      "name": "questRewards",
      "outputs": [
        {
          "internalType": "uint256",
          "name": "",
          "type": "uint256"
        }
      ],
      "stateMutability": "view",
      "type": "function"
    },
    {
      "inputs": [],
      "name": "renounceOwnership",
      "outputs": [],
      "stateMutability": "nonpayable",
      "type": "function"
    },
    {
      "inputs": [
        {
          "internalType": "address",
          "name": "operator",
          "type": "address"
        },
        {
          "internalType": "bytes32",
          "name": "tokenId",
          "type": "bytes32"
        },
        {
          "internalType": "bool",
          "name": "notify",
          "type": "bool"
        },
        {
          "internalType": "bytes",
          "name": "operatorNotificationData",
          "type": "bytes"
        }
      ],
      "name": "revokeOperator",
      "outputs": [],
      "stateMutability": "nonpayable",
      "type": "function"
    },
    {
      "inputs": [
        {
          "internalType": "bytes32",
          "name": "dataKey",
          "type": "bytes32"
        },
        {
          "internalType": "bytes",
          "name": "dataValue",
          "type": "bytes"
        }
      ],
      "name": "setData",
      "outputs": [],
      "stateMutability": "payable",
      "type": "function"
    },
    {
      "inputs": [
        {
          "internalType": "bytes32[]",
          "name": "dataKeys",
          "type": "bytes32[]"
        },
        {
          "internalType": "bytes[]",
          "name": "dataValues",
          "type": "bytes[]"
        }
      ],
      "name": "setDataBatch",
      "outputs": [],
      "stateMutability": "payable",
      "type": "function"
    },
    {
      "inputs": [
        {
          "internalType": "bytes32[]",
          "name": "tokenIds",
          "type": "bytes32[]"
        },
        {
          "internalType": "bytes32[]",
          "name": "dataKeys",
          "type": "bytes32[]"
        },
        {
          "internalType": "bytes[]",
          "name": "dataValues",
          "type": "bytes[]"
        }
      ],
      "name": "setDataBatchForTokenIds",
      "outputs": [],
      "stateMutability": "nonpayable",
      "type": "function"
    },
    {
      "inputs": [
        {
          "internalType": "bytes32",
          "name": "tokenId",
          "type": "bytes32"
        },
        {
          "internalType": "bytes32",
          "name": "dataKey",
          "type": "bytes32"
        },
        {
          "internalType": "bytes",
          "name": "dataValue",
          "type": "bytes"
        }
      ],
      "name": "setDataForTokenId",
      "outputs": [],
      "stateMutability": "nonpayable",
      "type": "function"
    },
    {
      "inputs": [
        {
          "internalType": "bytes4",
          "name": "interfaceId",
          "type": "bytes4"
        }
      ],
      "name": "supportsInterface",
      "outputs": [
        {
          "internalType": "bool",
          "name": "",
          "type": "bool"
        }
      ],
      "stateMutability": "view",
      "type": "function"
    },
    {
      "inputs": [
        {
          "internalType": "address",
          "name": "tokenOwner",
          "type": "address"
        }
      ],
      "name": "tokenIdsOf",
      "outputs": [
        {
          "internalType": "bytes32[]",
          "name": "",
          "type": "bytes32[]"
        }
      ],
      "stateMutability": "view",
      "type": "function"
    },
    {
      "inputs": [
        {
          "internalType": "bytes32",
          "name": "tokenId",
          "type": "bytes32"
        }
      ],
      "name": "tokenOwnerOf",
      "outputs": [
        {
          "internalType": "address",
          "name": "",
          "type": "address"
        }
      ],
      "stateMutability": "view",
      "type": "function"
    },
    {
      "inputs": [],
      "name": "totalSupply",
      "outputs": [
        {
          "internalType": "uint256",
          "name": "",
          "type": "uint256"
        }
      ],
      "stateMutability": "view",
      "type": "function"
    },
    {
      "inputs": [
        {
          "internalType": "address",
          "name": "from",
          "type": "address"
        },
        {
          "internalType": "address",
          "name": "to",
          "type": "address"
        },
        {
          "internalType": "bytes32",
          "name": "tokenId",
          "type": "bytes32"
        },
        {
          "internalType": "bool",
          "name": "force",
          "type": "bool"
        },
        {
          "internalType": "bytes",
          "name": "data",
          "type": "bytes"
        }
      ],
      "name": "transfer",
      "outputs": [],
      "stateMutability": "nonpayable",
      "type": "function"
    },
    {
      "inputs": [
        {
          "internalType": "address[]",
          "name": "from",
          "type": "address[]"
        },
        {
          "internalType": "address[]",
          "name": "to",
          "type": "address[]"
        },
        {
          "internalType": "bytes32[]",
          "name": "tokenId",
          "type": "bytes32[]"
        },
        {
          "internalType": "bool[]",
          "name": "force",
          "type": "bool[]"
        },
        {
          "internalType": "bytes[]",
          "name": "data",
          "type": "bytes[]"
        }
      ],
      "name": "transferBatch",
      "outputs": [],
      "stateMutability": "nonpayable",
      "type": "function"
    },
    {
      "inputs": [
        {
          "internalType": "address",
          "name": "newOwner",
          "type": "address"
        }
      ],
      "name": "transferOwnership",
      "outputs": [],
      "stateMutability": "nonpayable",
      "type": "function"
    },
    {
      "stateMutability": "payable",
      "type": "receive"
    }
  ],
  "bytecode": "0x60806040523480156200001157600080fd5b5060405162005ece38038062005ece83398181016040528101906200003791906200074f565b8484848460ff168460ff168484848481620000676200005b6200027460201b60201c565b6200027c60201b60201c565b600073ffffffffffffffffffffffffffffffffffffffff168173ffffffffffffffffffffffffffffffffffffffff1603620000ce576040517f1ad8836c00000000000000000000000000000000000000000000000000000000815260040160405180910390fd5b620000df816200027c60201b60201c565b506200014a7feafec4d89fa9619884b60000a4d96624a38f7ac2d8d9a604ecf07c12c77e480c60001b6040518060400160405280600481526020017fa4d96624000000000000000000000000000000000000000000000000000000008152506200034060201b60201c565b6200017f7fdeba1e292f8ba88238e10ab3c7f88bd4be4fac56cad5194b6ecceaf653468af160001b856200034060201b60201c565b620001b47f2f0a68ab07768e01943a599e73362a0e17a63a72e94dd2e384d2c1d4db93275660001b846200034060201b60201c565b6200020a7fe0261fa95db2eb3b5439bd033cda66d56b96f92f243a8228fd87550ed7bdfdb360001b82604051602001620001ef919062000830565b6040516020818303038152906040526200034060201b60201c565b50505050620002647ff675e9361af1c1664c1868cfa3eb97672d6b1a513aa5b81dec34c9ee330e818d60001b8260405160200162000249919062000830565b604051602081830303815290604052620003a160201b60201c565b5050505050505050505062000beb565b600033905090565b60008060009054906101000a900473ffffffffffffffffffffffffffffffffffffffff169050816000806101000a81548173ffffffffffffffffffffffffffffffffffffffff021916908373ffffffffffffffffffffffffffffffffffffffff1602179055508173ffffffffffffffffffffffffffffffffffffffff168173ffffffffffffffffffffffffffffffffffffffff167f8be0079c531659141344cd1fd0a4f28419497f9722a3daafe3b4186f6b6457e060405160405180910390a35050565b8060016000848152602001908152602001600020908162000362919062000a8e565b50817fece574603820d07bc9b91f2a932baadf4628aabcb8afba49776529c14a6104b28260405162000395919062000bc7565b60405180910390a25050565b7fdeba1e292f8ba88238e10ab3c7f88bd4be4fac56cad5194b6ecceaf653468af160001b8203620003fe576040517f85c169bd00000000000000000000000000000000000000000000000000000000815260040160405180910390fd5b7f2f0a68ab07768e01943a599e73362a0e17a63a72e94dd2e384d2c1d4db93275660001b82036200045b576040517f76755b3800000000000000000000000000000000000000000000000000000000815260040160405180910390fd5b7fe0261fa95db2eb3b5439bd033cda66d56b96f92f243a8228fd87550ed7bdfdb360001b8203620004b8576040517f4ef6d7fb00000000000000000000000000000000000000000000000000000000815260040160405180910390fd5b80600160008481526020019081526020016000209081620004da919062000a8e565b50817fece574603820d07bc9b91f2a932baadf4628aabcb8afba49776529c14a6104b2826040516200050d919062000bc7565b60405180910390a25050565b6000604051905090565b600080fd5b600080fd5b600080fd5b600080fd5b6000601f19601f8301169050919050565b7f4e487b7100000000000000000000000000000000000000000000000000000000600052604160045260246000fd5b620005828262000537565b810181811067ffffffffffffffff82111715620005a457620005a362000548565b5b80604052505050565b6000620005b962000519565b9050620005c7828262000577565b919050565b600067ffffffffffffffff821115620005ea57620005e962000548565b5b620005f58262000537565b9050602081019050919050565b60005b838110156200062257808201518184015260208101905062000605565b60008484015250505050565b6000620006456200063f84620005cc565b620005ad565b90508281526020810184848401111562000664576200066362000532565b5b6200067184828562000602565b509392505050565b600082601f8301126200069157620006906200052d565b5b8151620006a38482602086016200062e565b91505092915050565b600073ffffffffffffffffffffffffffffffffffffffff82169050919050565b6000620006d982620006ac565b9050919050565b620006eb81620006cc565b8114620006f757600080fd5b50565b6000815190506200070b81620006e0565b92915050565b600060ff82169050919050565b620007298162000711565b81146200073557600080fd5b50565b60008151905062000749816200071e565b92915050565b600080600080600060a086880312156200076e576200076d62000523565b5b600086015167ffffffffffffffff8111156200078f576200078e62000528565b5b6200079d8882890162000679565b955050602086015167ffffffffffffffff811115620007c157620007c062000528565b5b620007cf8882890162000679565b9450506040620007e288828901620006fa565b9350506060620007f58882890162000738565b9250506080620008088882890162000738565b9150509295509295909350565b6000819050919050565b6200082a8162000815565b82525050565b60006020820190506200084760008301846200081f565b92915050565b600081519050919050565b7f4e487b7100000000000000000000000000000000000000000000000000000000600052602260045260246000fd5b60006002820490506001821680620008a057607f821691505b602082108103620008b657620008b562000858565b5b50919050565b60008190508160005260206000209050919050565b60006020601f8301049050919050565b600082821b905092915050565b600060088302620009207fffffffffffffffffffffffffffffffffffffffffffffffffffffffffffffffff82620008e1565b6200092c8683620008e1565b95508019841693508086168417925050509392505050565b6000819050919050565b60006200096f62000969620009638462000815565b62000944565b62000815565b9050919050565b6000819050919050565b6200098b836200094e565b620009a36200099a8262000976565b848454620008ee565b825550505050565b600090565b620009ba620009ab565b620009c781848462000980565b505050565b5b81811015620009ef57620009e3600082620009b0565b600181019050620009cd565b5050565b601f82111562000a3e5762000a0881620008bc565b62000a1384620008d1565b8101602085101562000a23578190505b62000a3b62000a3285620008d1565b830182620009cc565b50505b505050565b600082821c905092915050565b600062000a636000198460080262000a43565b1980831691505092915050565b600062000a7e838362000a50565b9150826002028217905092915050565b62000a99826200084d565b67ffffffffffffffff81111562000ab55762000ab462000548565b5b62000ac1825462000887565b62000ace828285620009f3565b600060209050601f83116001811462000b06576000841562000af1578287015190505b62000afd858262000a70565b86555062000b6d565b601f19841662000b1686620008bc565b60005b8281101562000b405784890151825560018201915060208501945060208101905062000b19565b8683101562000b60578489015162000b5c601f89168262000a50565b8355505b6001600288020188555050505b505050505050565b600082825260208201905092915050565b600062000b93826200084d565b62000b9f818562000b75565b935062000bb181856020860162000602565b62000bbc8162000537565b840191505092915050565b6000602082019050818103600083015262000be3818462000b86565b905092915050565b6152d38062000bfb6000396000f3fe6080604052600436106101c65760003560e01c80636af7977f116100f75780639790242111610095578063d6c1407c11610064578063d6c1407c14610768578063db8c966314610791578063dedff9c6146107ba578063f2fde38b146107f757610240565b806397902421146106bb578063a3b261f2146106d7578063be9f0e6f14610714578063d638c9831461073d57610240565b80637e87632c116100d15780637e87632c146106225780637f23690c1461064b57806386a10ddd146106675780638da5cb5b1461069057610240565b80636af7977f1461059157806370a08231146105ce578063715018a61461060b57610240565b806321d7c05a11610164578063511b69521161013e578063511b6952146104e457806354f6127f1461050d5780635660f4001461054a5780636963d4381461055457610240565b806321d7c05a1461042d5780632a3654a41461046a57806349a6078d146104a757610240565b806316e023b3116101a057806316e023b31461034b57806318160ddd146103885780631d26fce6146103b3578063217b2270146103f057610240565b806301ffc9a7146102a8578063047f1e2b146102e55780630f13dda41461030e57610240565b36610240576000340361020e576040517fe5099ee300000000000000000000000000000000000000000000000000000000815260040161020590613306565b60405180910390fd5b6040517f61f4944200000000000000000000000000000000000000000000000000000000815260040160405180910390fd5b60003660606004600036905010156102915782826040517fe5099ee3000000000000000000000000000000000000000000000000000000008152600401610288929190613373565b60405180910390fd5b61029b8383610820565b9050915050805190602001f35b3480156102b457600080fd5b506102cf60048036038101906102ca9190613403565b61099e565b6040516102dc919061344b565b60405180910390f35b3480156102f157600080fd5b5061030c600480360381019061030791906134fa565b610a0f565b005b34801561031a57600080fd5b506103356004803603810190610330919061354d565b610ccc565b6040516103429190613589565b60405180910390f35b34801561035757600080fd5b50610372600480360381019061036d91906135da565b610ce4565b60405161037f9190613688565b60405180910390f35b34801561039457600080fd5b5061039d610cf8565b6040516103aa9190613589565b60405180910390f35b3480156103bf57600080fd5b506103da60048036038101906103d591906137f2565b610d02565b6040516103e79190613976565b60405180910390f35b3480156103fc57600080fd5b5061041760048036038101906104129190613998565b610e0a565b60405161042491906139d4565b60405180910390f35b34801561043957600080fd5b50610454600480360381019061044f919061354d565b610ebd565b60405161046191906139d4565b60405180910390f35b34801561047657600080fd5b50610491600480360381019061048c91906139ef565b610ef0565b60405161049e919061344b565b60405180910390f35b3480156104b357600080fd5b506104ce60048036038101906104c99190613998565b610f04565b6040516104db9190613aed565b60405180910390f35b3480156104f057600080fd5b5061050b60048036038101906105069190613be1565b610f31565b005b34801561051957600080fd5b50610534600480360381019061052f9190613998565b610f92565b6040516105419190613688565b60405180910390f35b610552610fa4565b005b34801561056057600080fd5b5061057b60048036038101906105769190613cd3565b611099565b6040516105889190613976565b60405180910390f35b34801561059d57600080fd5b506105b860048036038101906105b3919061354d565b611215565b6040516105c5919061344b565b60405180910390f35b3480156105da57600080fd5b506105f560048036038101906105f09190613d20565b611235565b6040516106029190613589565b60405180910390f35b34801561061757600080fd5b50610620611285565b005b34801561062e57600080fd5b5061064960048036038101906106449190613fb4565b611299565b005b610665600480360381019061066091906140bb565b6113ad565b005b34801561067357600080fd5b5061068e60048036038101906106899190614117565b6113fd565b005b34801561069c57600080fd5b506106a5611659565b6040516106b291906139d4565b60405180910390f35b6106d560048036038101906106d09190614186565b611682565b005b3480156106e357600080fd5b506106fe60048036038101906106f99190613d20565b6116d2565b60405161070b91906142bc565b60405180910390f35b34801561072057600080fd5b5061073b600480360381019061073691906142de565b611722565b005b34801561074957600080fd5b50610752611825565b60405161075f9190613589565b60405180910390f35b34801561077457600080fd5b5061078f600480360381019061078a9190614385565b61182b565b005b34801561079d57600080fd5b506107b860048036038101906107b391906143f4565b611843565b005b3480156107c657600080fd5b506107e160048036038101906107dc9190614477565b611a14565b6040516107ee9190613976565b60405180910390f35b34801561080357600080fd5b5061081e60048036038101906108199190613d20565b611ac5565b005b606060006108516000357fffffffff0000000000000000000000000000000000000000000000000000000016611b48565b509050600073ffffffffffffffffffffffffffffffffffffffff168173ffffffffffffffffffffffffffffffffffffffff16036108e9576000357fffffffff00000000000000000000000000000000000000000000000000000000166040517fbb370b2b0000000000000000000000000000000000000000000000000000000081526004016108e091906144cf565b60405180910390fd5b6000808273ffffffffffffffffffffffffffffffffffffffff16348787333460405160200161091b9493929190614583565b60405160208183030381529060405260405161093791906145ef565b60006040518083038185875af1925050503d8060008114610974576040519150601f19603f3d011682016040523d82523d6000602084013e610979565b606091505b5091509150811561098f57809350505050610998565b80518060208301fd5b92915050565b6000633a27170660e01b7bffffffffffffffffffffffffffffffffffffffffffffffffffffffff1916827bffffffffffffffffffffffffffffffffffffffffffffffffffffffff191614806109f857506109f782611c02565b5b80610a085750610a0782611c63565b5b9050919050565b3373ffffffffffffffffffffffffffffffffffffffff166007600085815260200190815260200160002060009054906101000a900473ffffffffffffffffffffffffffffffffffffffff1673ffffffffffffffffffffffffffffffffffffffff1614610ab0576040517f08c379a0000000000000000000000000000000000000000000000000000000008152600401610aa790614663565b60405180910390fd5b6008600084815260200190815260200160002060009054906101000a900460ff1615610b11576040517f08c379a0000000000000000000000000000000000000000000000000000000008152600401610b08906146cf565b60405180910390fd5b60008360001b9050610b36308483600160405180602001604052806000815250611cca565b6000600960008681526020019081526020016000205490506000600960008781526020019081526020016000208190555060016008600087815260200190815260200160002060006101000a81548160ff0219169083151502179055506000811115610c4a5760008473ffffffffffffffffffffffffffffffffffffffff1682604051610bc290614715565b60006040518083038185875af1925050503d8060008114610bff576040519150601f19603f3d011682016040523d82523d6000602084013e610c04565b606091505b5050905080610c48576040517f08c379a0000000000000000000000000000000000000000000000000000000008152600401610c3f90614776565b60405180910390fd5b505b60016008600087815260200190815260200160002060006101000a81548160ff0219169083151502179055508373ffffffffffffffffffffffffffffffffffffffff16857fcb2c52dd8818d9521b16e6d9c1eafc75e9c0857efe79bd0df13ad93e4da6921385604051610cbd9190613589565b60405180910390a35050505050565b60096020528060005260406000206000915090505481565b6060610cf08383612001565b905092915050565b6000600254905090565b60608151835114610d3f576040517f2fa71dfe00000000000000000000000000000000000000000000000000000000815260040160405180910390fd5b825167ffffffffffffffff811115610d5a57610d596136af565b5b604051908082528060200260200182016040528015610d8d57816020015b6060815260200190600190039081610d785790505b50905060005b8351811015610e0357610dda848281518110610db257610db1614796565b5b6020026020010151848381518110610dcd57610dcc614796565b5b6020026020010151612001565b828281518110610ded57610dec614796565b5b6020026020010181905250806001019050610d93565b5092915050565b6000806003600084815260200190815260200160002060009054906101000a900473ffffffffffffffffffffffffffffffffffffffff169050600073ffffffffffffffffffffffffffffffffffffffff168173ffffffffffffffffffffffffffffffffffffffff1603610eb457826040517fae8f9a36000000000000000000000000000000000000000000000000000000008152600401610eab91906147d4565b60405180910390fd5b80915050919050565b60076020528060005260406000206000915054906101000a900473ffffffffffffffffffffffffffffffffffffffff1681565b6000610efc83836120cf565b905092915050565b6060610f0f8261213c565b610f2a60056000848152602001908152602001600020612189565b9050919050565b610f3b33846120cf565b610f7e5782336040517f1294d2a9000000000000000000000000000000000000000000000000000000008152600401610f759291906147ef565b60405180910390fd5b610f8b8585858585611cca565b5050505050565b6060610f9d826121aa565b9050919050565b600060065460001b9050610fca308260016040518060200160405280600081525061224f565b3360076000600654815260200190815260200160002060006101000a81548173ffffffffffffffffffffffffffffffffffffffff021916908373ffffffffffffffffffffffffffffffffffffffff16021790555034600960006006548152602001908152602001600020819055503373ffffffffffffffffffffffffffffffffffffffff166006547f265711dffb2100716e957f1a6a8f230bd41e3c50d54f861eda7ba55f1ccc3cc260405160405180910390a36006600081548092919061109190614847565b919050555050565b60608282905067ffffffffffffffff8111156110b8576110b76136af565b5b6040519080825280602002602001820160405280156110eb57816020015b60608152602001906001900390816110d65790505b50905060005b8383905081101561120e576000803073ffffffffffffffffffffffffffffffffffffffff1686868581811061112957611128614796565b5b905060200281019061113b919061489e565b604051611149929190614901565b600060405180830381855af49150503d8060008114611184576040519150601f19603f3d011682016040523d82523d6000602084013e611189565b606091505b5091509150816111e25760008151146111a55780518082602001fd5b826040517f234eb8190000000000000000000000000000000000000000000000000000000081526004016111d99190613589565b60405180910390fd5b808484815181106111f6576111f5614796565b5b602002602001018190525082600101925050506110f1565b5092915050565b60086020528060005260406000206000915054906101000a900460ff1681565b600061127e600460008473ffffffffffffffffffffffffffffffffffffffff1673ffffffffffffffffffffffffffffffffffffffff1681526020019081526020016000206124cb565b9050919050565b61128d6124e0565b611297600061255e565b565b6000855190508451811415806112b0575083518114155b806112bc575082518114155b806112c8575081518114155b156112ff576040517f93a8311900000000000000000000000000000000000000000000000000000000815260040160405180910390fd5b60005b818110156113a4576113998782815181106113205761131f614796565b5b602002602001015187838151811061133b5761133a614796565b5b602002602001015187848151811061135657611355614796565b5b602002602001015187858151811061137157611370614796565b5b602002602001015187868151811061138c5761138b614796565b5b6020026020010151610f31565b806001019050611302565b50505050505050565b6113b56124e0565b600034146113ef576040517ff36ba73700000000000000000000000000000000000000000000000000000000815260040160405180910390fd5b6113f98282612622565b5050565b600061140883610e0a565b90503373ffffffffffffffffffffffffffffffffffffffff168173ffffffffffffffffffffffffffffffffffffffff161461147e578083336040517f5b271ea20000000000000000000000000000000000000000000000000000000081526004016114759392919061491a565b60405180910390fd5b600073ffffffffffffffffffffffffffffffffffffffff168473ffffffffffffffffffffffffffffffffffffffff16036114e4576040517f9577b8b300000000000000000000000000000000000000000000000000000000815260040160405180910390fd5b8373ffffffffffffffffffffffffffffffffffffffff168173ffffffffffffffffffffffffffffffffffffffff1603611549576040517f89fdad6200000000000000000000000000000000000000000000000000000000815260040160405180910390fd5b6000611570856005600087815260200190815260200160002061268c90919063ffffffff16565b9050806115b65784846040517fa7626b680000000000000000000000000000000000000000000000000000000081526004016115ad929190614951565b60405180910390fd5b838273ffffffffffffffffffffffffffffffffffffffff168673ffffffffffffffffffffffffffffffffffffffff167f1b1b58aa2ec0cec2228b2d37124556d41f5a1f7b12f089171f896cc236671215866040516116149190613688565b60405180910390a460003385600186604051602001611636949392919061497a565b604051602081830303815290604052905061165186826126bc565b505050505050565b60008060009054906101000a900473ffffffffffffffffffffffffffffffffffffffff16905090565b61168a6124e0565b600034146116c4576040517ff36ba73700000000000000000000000000000000000000000000000000000000815260040160405180910390fd5b6116ce82826126ee565b5050565b606061171b600460008473ffffffffffffffffffffffffffffffffffffffff1673ffffffffffffffffffffffffffffffffffffffff1681526020019081526020016000206127be565b9050919050565b61172a6124e0565b8151835114158061173d57508051825114155b15611774576040517f2fa71dfe00000000000000000000000000000000000000000000000000000000815260040160405180910390fd5b60008351036117af576040517f80c9830500000000000000000000000000000000000000000000000000000000815260040160405180910390fd5b60005b835181101561181f576118148482815181106117d1576117d0614796565b5b60200260200101518483815181106117ec576117eb614796565b5b602002602001015184848151811061180757611806614796565b5b60200260200101516127df565b8060010190506117b2565b50505050565b60065481565b6118336124e0565b61183e8383836127df565b505050565b600061184e84610e0a565b90508073ffffffffffffffffffffffffffffffffffffffff163373ffffffffffffffffffffffffffffffffffffffff16146118f8573373ffffffffffffffffffffffffffffffffffffffff168573ffffffffffffffffffffffffffffffffffffffff16146118f7573381856040517f760b5acd0000000000000000000000000000000000000000000000000000000081526004016118ee939291906149c6565b60405180910390fd5b5b600073ffffffffffffffffffffffffffffffffffffffff168573ffffffffffffffffffffffffffffffffffffffff160361195e576040517f9577b8b300000000000000000000000000000000000000000000000000000000815260040160405180910390fd5b8473ffffffffffffffffffffffffffffffffffffffff168173ffffffffffffffffffffffffffffffffffffffff16036119c3576040517f89fdad6200000000000000000000000000000000000000000000000000000000815260040160405180910390fd5b6119d08582868686612866565b8215611a0d57600081856000856040516020016119f0949392919061497a565b6040516020818303038152906040529050611a0b86826126bc565b505b5050505050565b6060815167ffffffffffffffff811115611a3157611a306136af565b5b604051908082528060200260200182016040528015611a6457816020015b6060815260200190600190039081611a4f5790505b50905060005b8251811015611abf57611a96838281518110611a8957611a88614796565b5b60200260200101516121aa565b828281518110611aa957611aa8614796565b5b6020026020010181905250806001019050611a6a565b50919050565b611acd6124e0565b600073ffffffffffffffffffffffffffffffffffffffff168173ffffffffffffffffffffffffffffffffffffffff1603611b3c576040517f08c379a0000000000000000000000000000000000000000000000000000000008152600401611b3390614a6f565b60405180910390fd5b611b458161255e565b50565b6000806000611b8369cee78b4094da8601109660b01b857bffffffffffffffffffffffffffffffffffffffffffffffffffffffff1916612943565b90506000611b90826121aa565b90506014815114158015611ba657506000815114155b15611be857806040517f42bfe79f000000000000000000000000000000000000000000000000000000008152600401611bdf9190613688565b60405180910390fd5b80611bf290614aed565b60601c6001935093505050915091565b600063a918fa6b60e01b7bffffffffffffffffffffffffffffffffffffffffffffffffffffffff1916827bffffffffffffffffffffffffffffffffffffffffffffffffffffffff19161480611c5c5750611c5b82612983565b5b9050919050565b600080611c766301ffc9a760e01b611b48565b509050600073ffffffffffffffffffffffffffffffffffffffff168173ffffffffffffffffffffffffffffffffffffffff1603611cb7576000915050611cc5565b611cc18184612a4e565b9150505b919050565b6000611cd584610e0a565b90508573ffffffffffffffffffffffffffffffffffffffff168173ffffffffffffffffffffffffffffffffffffffff1614611d4b578084876040517f5b271ea2000000000000000000000000000000000000000000000000000000008152600401611d429392919061491a565b60405180910390fd5b600073ffffffffffffffffffffffffffffffffffffffff168573ffffffffffffffffffffffffffffffffffffffff1603611db1576040517f24ecef4d00000000000000000000000000000000000000000000000000000000815260040160405180910390fd5b611dbe8686868686612b0d565b6000611dc985610e0a565b90508073ffffffffffffffffffffffffffffffffffffffff168273ffffffffffffffffffffffffffffffffffffffff1614611e3f578482826040517f5a9c31d3000000000000000000000000000000000000000000000000000000008152600401611e3693929190614b54565b60405180910390fd5b611e498786612b14565b611e9a85600460008a73ffffffffffffffffffffffffffffffffffffffff1673ffffffffffffffffffffffffffffffffffffffff168152602001908152602001600020612b8a90919063ffffffff16565b50611eec85600460008973ffffffffffffffffffffffffffffffffffffffff1673ffffffffffffffffffffffffffffffffffffffff168152602001908152602001600020612ba190919063ffffffff16565b50856003600087815260200190815260200160002060006101000a81548173ffffffffffffffffffffffffffffffffffffffff021916908373ffffffffffffffffffffffffffffffffffffffff160217905550848673ffffffffffffffffffffffffffffffffffffffff168873ffffffffffffffffffffffffffffffffffffffff167fb333c813a7426a7a11e2b190cad52c44119421594b47f6f32ace6d8c7207b2bf338888604051611fa193929190614b8b565b60405180910390a4611fb68787878787612bb8565b60003388888887604051602001611fd1959493929190614bc9565b6040516020818303038152906040529050611fec8882612bbf565b611ff7878683612bf1565b5050505050505050565b606060016000848460405160200161201a929190614c44565b604051602081830303815290604052805190602001208152602001908152602001600020805461204990614c9f565b80601f016020809104026020016040519081016040528092919081815260200182805461207590614c9f565b80156120c25780601f10612097576101008083540402835291602001916120c2565b820191906000526020600020905b8154815290600101906020018083116120a557829003601f168201915b5050505050905092915050565b60006120da82610e0a565b73ffffffffffffffffffffffffffffffffffffffff168373ffffffffffffffffffffffffffffffffffffffff16148061213457506121338360056000858152602001908152602001600020612d5790919063ffffffff16565b5b905092915050565b61214581612d87565b61218657806040517fae8f9a3600000000000000000000000000000000000000000000000000000000815260040161217d91906147d4565b60405180910390fd5b50565b6060600061219983600001612df3565b905060608190508092505050919050565b60606001600083815260200190815260200160002080546121ca90614c9f565b80601f01602080910402602001604051908101604052809291908181526020018280546121f690614c9f565b80156122435780601f1061221857610100808354040283529160200191612243565b820191906000526020600020905b81548152906001019060200180831161222657829003601f168201915b50505050509050919050565b600073ffffffffffffffffffffffffffffffffffffffff168473ffffffffffffffffffffffffffffffffffffffff16036122b5576040517f24ecef4d00000000000000000000000000000000000000000000000000000000815260040160405180910390fd5b6122be83612d87565b1561230057826040517f34c7b5110000000000000000000000000000000000000000000000000000000081526004016122f791906147d4565b60405180910390fd5b61230e600085858585612b0d565b61231783612d87565b1561235957826040517f34c7b51100000000000000000000000000000000000000000000000000000000815260040161235091906147d4565b60405180910390fd5b60026000815461236890614847565b919050819055506123c083600460008773ffffffffffffffffffffffffffffffffffffffff1673ffffffffffffffffffffffffffffffffffffffff168152602001908152602001600020612ba190919063ffffffff16565b50836003600085815260200190815260200160002060006101000a81548173ffffffffffffffffffffffffffffffffffffffff021916908373ffffffffffffffffffffffffffffffffffffffff160217905550828473ffffffffffffffffffffffffffffffffffffffff16600073ffffffffffffffffffffffffffffffffffffffff167fb333c813a7426a7a11e2b190cad52c44119421594b47f6f32ace6d8c7207b2bf33868660405161247693929190614b8b565b60405180910390a461248c600085858585612bb8565b60003360008686856040516020016124a8959493929190614bc9565b60405160208183030381529060405290506124c4858483612bf1565b5050505050565b60006124d982600001612e4f565b9050919050565b6124e8612e60565b73ffffffffffffffffffffffffffffffffffffffff16612506611659565b73ffffffffffffffffffffffffffffffffffffffff161461255c576040517f08c379a000000000000000000000000000000000000000000000000000000000815260040161255390614d1c565b60405180910390fd5b565b60008060009054906101000a900473ffffffffffffffffffffffffffffffffffffffff169050816000806101000a81548173ffffffffffffffffffffffffffffffffffffffff021916908373ffffffffffffffffffffffffffffffffffffffff1602179055508173ffffffffffffffffffffffffffffffffffffffff168173ffffffffffffffffffffffffffffffffffffffff167f8be0079c531659141344cd1fd0a4f28419497f9722a3daafe3b4186f6b6457e060405160405180910390a35050565b7ff675e9361af1c1664c1868cfa3eb97672d6b1a513aa5b81dec34c9ee330e818d60001b820361267e576040517f3664800a00000000000000000000000000000000000000000000000000000000815260040160405180910390fd5b6126888282612e68565b5050565b60006126b4836000018373ffffffffffffffffffffffffffffffffffffffff1660001b612fd9565b905092915050565b6126ea827f8a1c15a8799f71b547e08e2bcb2e85257e81b0a07eee2ce6712549eef1f0097060001b83613049565b5050565b8051825114612729576040517f3bcc897900000000000000000000000000000000000000000000000000000000815260040160405180910390fd5b6000825103612764576040517f97da5f9500000000000000000000000000000000000000000000000000000000815260040160405180910390fd5b60005b82518110156127b9576127ae83828151811061278657612785614796565b5b60200260200101518383815181106127a1576127a0614796565b5b6020026020010151612622565b806001019050612767565b505050565b606060006127ce83600001612df3565b905060608190508092505050919050565b806001600085856040516020016127f7929190614c44565b60405160208183030381529060405280519060200120815260200190815260200160002090816128279190614edb565b5081837fa6e4251f855f750545fe414f120db91c76b88def14d120969e5bb2d3f05debbb836040516128599190613688565b60405180910390a3505050565b600061288d866005600087815260200190815260200160002061310890919063ffffffff16565b9050806128d35785846040517f4aa31a8c0000000000000000000000000000000000000000000000000000000081526004016128ca929190614951565b60405180910390fd5b838573ffffffffffffffffffffffffffffffffffffffff168773ffffffffffffffffffffffffffffffffffffffff167fc78cd419d6136f9f1c1c6aec1d3fae098cffaf8bc86314a8f2685e32fe574e3c8686604051612933929190614fad565b60405180910390a4505050505050565b60008083600060f01b8460405160200161295f93929190615098565b60405160208183030381529060405290508061297a906150ea565b91505092915050565b600063629aa69460e01b7bffffffffffffffffffffffffffffffffffffffffffffffffffffffff1916827bffffffffffffffffffffffffffffffffffffffffffffffffffffffff191614806129dd57506129dc826129e4565b5b9050919050565b60007f01ffc9a7000000000000000000000000000000000000000000000000000000007bffffffffffffffffffffffffffffffffffffffffffffffffffffffff1916827bffffffffffffffffffffffffffffffffffffffffffffffffffffffff1916149050919050565b6000806301ffc9a760e01b83604051602401612a6a91906144cf565b604051602081830303815290604052907bffffffffffffffffffffffffffffffffffffffffffffffffffffffff19166020820180517bffffffffffffffffffffffffffffffffffffffffffffffffffffffff838183161783525050505090506000806000602060008551602087018a617530fa92503d91506000519050828015612af5575060208210155b8015612b015750600081115b94505050505092915050565b5050505050565b60006005600083815260200190815260200160002090506000612b3682613138565b90506000805b82811015612b8257612b5860008561314d90919063ffffffff16565b9150612b77828787600060405180602001604052806000815250612866565b806001019050612b3c565b505050505050565b6000612b998360000183613167565b905092915050565b6000612bb08360000183612fd9565b905092915050565b5050505050565b612bed827fb23eae7e6d1564b295b4c3e3be402d9a2f0776c57bdf365903496f6fa481ab0060001b83613049565b5050565b612c0283636bb56a1460e01b612a4e565b15612cb3578273ffffffffffffffffffffffffffffffffffffffff16636bb56a147f0b084a55ebf70fd3c06fd755269dac2212c4d3f0f4d09079780bfa50c1b2984d60001b836040518363ffffffff1660e01b8152600401612c65929190615151565b6000604051808303816000875af1158015612c84573d6000803e3d6000fd5b505050506040513d6000823e3d601f19601f82011682018060405250810190612cad91906151f1565b50612d52565b81612d515760008373ffffffffffffffffffffffffffffffffffffffff163b14612d1457826040517f4349776d000000000000000000000000000000000000000000000000000000008152600401612d0b91906139d4565b60405180910390fd5b826040517f03173137000000000000000000000000000000000000000000000000000000008152600401612d4891906139d4565b60405180910390fd5b5b505050565b6000612d7f836000018373ffffffffffffffffffffffffffffffffffffffff1660001b61327b565b905092915050565b60008073ffffffffffffffffffffffffffffffffffffffff166003600084815260200190815260200160002060009054906101000a900473ffffffffffffffffffffffffffffffffffffffff1673ffffffffffffffffffffffffffffffffffffffff1614159050919050565b606081600001805480602002602001604051908101604052809291908181526020018280548015612e4357602002820191906000526020600020905b815481526020019060010190808311612e2f575b50505050509050919050565b600081600001805490509050919050565b600033905090565b7fdeba1e292f8ba88238e10ab3c7f88bd4be4fac56cad5194b6ecceaf653468af160001b8203612ec4576040517f85c169bd00000000000000000000000000000000000000000000000000000000815260040160405180910390fd5b7f2f0a68ab07768e01943a599e73362a0e17a63a72e94dd2e384d2c1d4db93275660001b8203612f20576040517f76755b3800000000000000000000000000000000000000000000000000000000815260040160405180910390fd5b7fe0261fa95db2eb3b5439bd033cda66d56b96f92f243a8228fd87550ed7bdfdb360001b8203612f7c576040517f4ef6d7fb00000000000000000000000000000000000000000000000000000000815260040160405180910390fd5b80600160008481526020019081526020016000209081612f9c9190614edb565b50817fece574603820d07bc9b91f2a932baadf4628aabcb8afba49776529c14a6104b282604051612fcd9190613688565b60405180910390a25050565b6000612fe5838361327b565b61303e578260000182908060018154018082558091505060019003906000526020600020016000909190919091505582600001805490508360010160008481526020019081526020016000208190555060019050613043565b600090505b92915050565b613079636bb56a1460e01b8473ffffffffffffffffffffffffffffffffffffffff16612a4e90919063ffffffff16565b15613103578273ffffffffffffffffffffffffffffffffffffffff16636bb56a1483836040518363ffffffff1660e01b81526004016130b9929190615151565b6000604051808303816000875af11580156130d8573d6000803e3d6000fd5b505050506040513d6000823e3d601f19601f8201168201806040525081019061310191906151f1565b505b505050565b6000613130836000018373ffffffffffffffffffffffffffffffffffffffff1660001b613167565b905092915050565b600061314682600001612e4f565b9050919050565b600061315c836000018361329e565b60001c905092915050565b6000808360010160008481526020019081526020016000205490506000811461326f576000600182613199919061523a565b90506000600186600001805490506131b1919061523a565b90508181146132205760008660000182815481106131d2576131d1614796565b5b90600052602060002001549050808760000184815481106131f6576131f5614796565b5b90600052602060002001819055508387600101600083815260200190815260200160002081905550505b856000018054806132345761323361526e565b5b600190038181906000526020600020016000905590558560010160008681526020019081526020016000206000905560019350505050613275565b60009150505b92915050565b600080836001016000848152602001908152602001600020541415905092915050565b60008260000182815481106132b6576132b5614796565b5b9060005260206000200154905092915050565b600082825260208201905092915050565b60008082015250565b60006132f06004836132c9565b91506132fb826132da565b602082019050919050565b6000602082019050818103600083015261331f816132e3565b9050919050565b82818337600083830152505050565b6000601f19601f8301169050919050565b600061335283856132c9565b935061335f838584613326565b61336883613335565b840190509392505050565b6000602082019050818103600083015261338e818486613346565b90509392505050565b6000604051905090565b600080fd5b600080fd5b60007fffffffff0000000000000000000000000000000000000000000000000000000082169050919050565b6133e0816133ab565b81146133eb57600080fd5b50565b6000813590506133fd816133d7565b92915050565b600060208284031215613419576134186133a1565b5b6000613427848285016133ee565b91505092915050565b60008115159050919050565b61344581613430565b82525050565b6000602082019050613460600083018461343c565b92915050565b6000819050919050565b61347981613466565b811461348457600080fd5b50565b60008135905061349681613470565b92915050565b600073ffffffffffffffffffffffffffffffffffffffff82169050919050565b60006134c78261349c565b9050919050565b6134d7816134bc565b81146134e257600080fd5b50565b6000813590506134f4816134ce565b92915050565b600080600060608486031215613513576135126133a1565b5b600061352186828701613487565b9350506020613532868287016134e5565b925050604061354386828701613487565b9150509250925092565b600060208284031215613563576135626133a1565b5b600061357184828501613487565b91505092915050565b61358381613466565b82525050565b600060208201905061359e600083018461357a565b92915050565b6000819050919050565b6135b7816135a4565b81146135c257600080fd5b50565b6000813590506135d4816135ae565b92915050565b600080604083850312156135f1576135f06133a1565b5b60006135ff858286016135c5565b9250506020613610858286016135c5565b9150509250929050565b600081519050919050565b60005b83811015613643578082015181840152602081019050613628565b60008484015250505050565b600061365a8261361a565b61366481856132c9565b9350613674818560208601613625565b61367d81613335565b840191505092915050565b600060208201905081810360008301526136a2818461364f565b905092915050565b600080fd5b7f4e487b7100000000000000000000000000000000000000000000000000000000600052604160045260246000fd5b6136e782613335565b810181811067ffffffffffffffff82111715613706576137056136af565b5b80604052505050565b6000613719613397565b905061372582826136de565b919050565b600067ffffffffffffffff821115613745576137446136af565b5b602082029050602081019050919050565b600080fd5b600061376e6137698461372a565b61370f565b9050808382526020820190506020840283018581111561379157613790613756565b5b835b818110156137ba57806137a688826135c5565b845260208401935050602081019050613793565b5050509392505050565b600082601f8301126137d9576137d86136aa565b5b81356137e984826020860161375b565b91505092915050565b60008060408385031215613809576138086133a1565b5b600083013567ffffffffffffffff811115613827576138266133a6565b5b613833858286016137c4565b925050602083013567ffffffffffffffff811115613854576138536133a6565b5b613860858286016137c4565b9150509250929050565b600081519050919050565b600082825260208201905092915050565b6000819050602082019050919050565b600082825260208201905092915050565b60006138b28261361a565b6138bc8185613896565b93506138cc818560208601613625565b6138d581613335565b840191505092915050565b60006138ec83836138a7565b905092915050565b6000602082019050919050565b600061390c8261386a565b6139168185613875565b93508360208202850161392885613886565b8060005b85811015613964578484038952815161394585826138e0565b9450613950836138f4565b925060208a0199505060018101905061392c565b50829750879550505050505092915050565b600060208201905081810360008301526139908184613901565b905092915050565b6000602082840312156139ae576139ad6133a1565b5b60006139bc848285016135c5565b91505092915050565b6139ce816134bc565b82525050565b60006020820190506139e960008301846139c5565b92915050565b60008060408385031215613a0657613a056133a1565b5b6000613a14858286016134e5565b9250506020613a25858286016135c5565b9150509250929050565b600081519050919050565b600082825260208201905092915050565b6000819050602082019050919050565b613a64816134bc565b82525050565b6000613a768383613a5b565b60208301905092915050565b6000602082019050919050565b6000613a9a82613a2f565b613aa48185613a3a565b9350613aaf83613a4b565b8060005b83811015613ae0578151613ac78882613a6a565b9750613ad283613a82565b925050600181019050613ab3565b5085935050505092915050565b60006020820190508181036000830152613b078184613a8f565b905092915050565b613b1881613430565b8114613b2357600080fd5b50565b600081359050613b3581613b0f565b92915050565b600080fd5b600067ffffffffffffffff821115613b5b57613b5a6136af565b5b613b6482613335565b9050602081019050919050565b6000613b84613b7f84613b40565b61370f565b905082815260208101848484011115613ba057613b9f613b3b565b5b613bab848285613326565b509392505050565b600082601f830112613bc857613bc76136aa565b5b8135613bd8848260208601613b71565b91505092915050565b600080600080600060a08688031215613bfd57613bfc6133a1565b5b6000613c0b888289016134e5565b9550506020613c1c888289016134e5565b9450506040613c2d888289016135c5565b9350506060613c3e88828901613b26565b925050608086013567ffffffffffffffff811115613c5f57613c5e6133a6565b5b613c6b88828901613bb3565b9150509295509295909350565b600080fd5b60008083601f840112613c9357613c926136aa565b5b8235905067ffffffffffffffff811115613cb057613caf613c78565b5b602083019150836020820283011115613ccc57613ccb613756565b5b9250929050565b60008060208385031215613cea57613ce96133a1565b5b600083013567ffffffffffffffff811115613d0857613d076133a6565b5b613d1485828601613c7d565b92509250509250929050565b600060208284031215613d3657613d356133a1565b5b6000613d44848285016134e5565b91505092915050565b600067ffffffffffffffff821115613d6857613d676136af565b5b602082029050602081019050919050565b6000613d8c613d8784613d4d565b61370f565b90508083825260208201905060208402830185811115613daf57613dae613756565b5b835b81811015613dd85780613dc488826134e5565b845260208401935050602081019050613db1565b5050509392505050565b600082601f830112613df757613df66136aa565b5b8135613e07848260208601613d79565b91505092915050565b600067ffffffffffffffff821115613e2b57613e2a6136af565b5b602082029050602081019050919050565b6000613e4f613e4a84613e10565b61370f565b90508083825260208201905060208402830185811115613e7257613e71613756565b5b835b81811015613e9b5780613e878882613b26565b845260208401935050602081019050613e74565b5050509392505050565b600082601f830112613eba57613eb96136aa565b5b8135613eca848260208601613e3c565b91505092915050565b600067ffffffffffffffff821115613eee57613eed6136af565b5b602082029050602081019050919050565b6000613f12613f0d84613ed3565b61370f565b90508083825260208201905060208402830185811115613f3557613f34613756565b5b835b81811015613f7c57803567ffffffffffffffff811115613f5a57613f596136aa565b5b808601613f678982613bb3565b85526020850194505050602081019050613f37565b5050509392505050565b600082601f830112613f9b57613f9a6136aa565b5b8135613fab848260208601613eff565b91505092915050565b600080600080600060a08688031215613fd057613fcf6133a1565b5b600086013567ffffffffffffffff811115613fee57613fed6133a6565b5b613ffa88828901613de2565b955050602086013567ffffffffffffffff81111561401b5761401a6133a6565b5b61402788828901613de2565b945050604086013567ffffffffffffffff811115614048576140476133a6565b5b614054888289016137c4565b935050606086013567ffffffffffffffff811115614075576140746133a6565b5b61408188828901613ea5565b925050608086013567ffffffffffffffff8111156140a2576140a16133a6565b5b6140ae88828901613f86565b9150509295509295909350565b600080604083850312156140d2576140d16133a1565b5b60006140e0858286016135c5565b925050602083013567ffffffffffffffff811115614101576141006133a6565b5b61410d85828601613bb3565b9150509250929050565b6000806000606084860312156141305761412f6133a1565b5b600061413e868287016134e5565b935050602061414f868287016135c5565b925050604084013567ffffffffffffffff8111156141705761416f6133a6565b5b61417c86828701613bb3565b9150509250925092565b6000806040838503121561419d5761419c6133a1565b5b600083013567ffffffffffffffff8111156141bb576141ba6133a6565b5b6141c7858286016137c4565b925050602083013567ffffffffffffffff8111156141e8576141e76133a6565b5b6141f485828601613f86565b9150509250929050565b600081519050919050565b600082825260208201905092915050565b6000819050602082019050919050565b614233816135a4565b82525050565b6000614245838361422a565b60208301905092915050565b6000602082019050919050565b6000614269826141fe565b6142738185614209565b935061427e8361421a565b8060005b838110156142af5781516142968882614239565b97506142a183614251565b925050600181019050614282565b5085935050505092915050565b600060208201905081810360008301526142d6818461425e565b905092915050565b6000806000606084860312156142f7576142f66133a1565b5b600084013567ffffffffffffffff811115614315576143146133a6565b5b614321868287016137c4565b935050602084013567ffffffffffffffff811115614342576143416133a6565b5b61434e868287016137c4565b925050604084013567ffffffffffffffff81111561436f5761436e6133a6565b5b61437b86828701613f86565b9150509250925092565b60008060006060848603121561439e5761439d6133a1565b5b60006143ac868287016135c5565b93505060206143bd868287016135c5565b925050604084013567ffffffffffffffff8111156143de576143dd6133a6565b5b6143ea86828701613bb3565b9150509250925092565b6000806000806080858703121561440e5761440d6133a1565b5b600061441c878288016134e5565b945050602061442d878288016135c5565b935050604061443e87828801613b26565b925050606085013567ffffffffffffffff81111561445f5761445e6133a6565b5b61446b87828801613bb3565b91505092959194509250565b60006020828403121561448d5761448c6133a1565b5b600082013567ffffffffffffffff8111156144ab576144aa6133a6565b5b6144b7848285016137c4565b91505092915050565b6144c9816133ab565b82525050565b60006020820190506144e460008301846144c0565b92915050565b600081905092915050565b600061450183856144ea565b935061450e838584613326565b82840190509392505050565b60008160601b9050919050565b60006145328261451a565b9050919050565b600061454482614527565b9050919050565b61455c614557826134bc565b614539565b82525050565b6000819050919050565b61457d61457882613466565b614562565b82525050565b60006145908286886144f5565b915061459c828561454b565b6014820191506145ac828461456c565b60208201915081905095945050505050565b60006145c98261361a565b6145d381856144ea565b93506145e3818560208601613625565b80840191505092915050565b60006145fb82846145be565b915081905092915050565b600082825260208201905092915050565b7f4e6f7420796f7572207175657374000000000000000000000000000000000000600082015250565b600061464d600e83614606565b915061465882614617565b602082019050919050565b6000602082019050818103600083015261467c81614640565b9050919050565b7f517565737420616c726561647920636f6d706c65746564000000000000000000600082015250565b60006146b9601783614606565b91506146c482614683565b602082019050919050565b600060208201905081810360008301526146e8816146ac565b9050919050565b50565b60006146ff6000836144ea565b915061470a826146ef565b600082019050919050565b6000614720826146f2565b9150819050919050565b7f526577617264207472616e73666572206661696c656400000000000000000000600082015250565b6000614760601683614606565b915061476b8261472a565b602082019050919050565b6000602082019050818103600083015261478f81614753565b9050919050565b7f4e487b7100000000000000000000000000000000000000000000000000000000600052603260045260246000fd5b6147ce816135a4565b82525050565b60006020820190506147e960008301846147c5565b92915050565b600060408201905061480460008301856147c5565b61481160208301846139c5565b9392505050565b7f4e487b7100000000000000000000000000000000000000000000000000000000600052601160045260246000fd5b600061485282613466565b91507fffffffffffffffffffffffffffffffffffffffffffffffffffffffffffffffff820361488457614883614818565b5b600182019050919050565b600080fd5b600080fd5b600080fd5b600080833560016020038436030381126148bb576148ba61488f565b5b80840192508235915067ffffffffffffffff8211156148dd576148dc614894565b5b6020830192506001820236038313156148f9576148f8614899565b5b509250929050565b600061490e8284866144f5565b91508190509392505050565b600060608201905061492f60008301866139c5565b61493c60208301856147c5565b61494960408301846139c5565b949350505050565b600060408201905061496660008301856139c5565b61497360208301846147c5565b9392505050565b600060808201905061498f60008301876139c5565b61499c60208301866147c5565b6149a9604083018561343c565b81810360608301526149bb818461364f565b905095945050505050565b60006060820190506149db60008301866139c5565b6149e860208301856139c5565b6149f560408301846147c5565b949350505050565b7f4f776e61626c653a206e6577206f776e657220697320746865207a65726f206160008201527f6464726573730000000000000000000000000000000000000000000000000000602082015250565b6000614a59602683614606565b9150614a64826149fd565b604082019050919050565b60006020820190508181036000830152614a8881614a4c565b9050919050565b6000819050602082019050919050565b60007fffffffffffffffffffffffffffffffffffffffff00000000000000000000000082169050919050565b6000614ad78251614a9f565b80915050919050565b600082821b905092915050565b6000614af88261361a565b82614b0284614a8f565b9050614b0d81614acb565b92506014821015614b4d57614b487fffffffffffffffffffffffffffffffffffffffff00000000000000000000000083601403600802614ae0565b831692505b5050919050565b6000606082019050614b6960008301866147c5565b614b7660208301856139c5565b614b8360408301846139c5565b949350505050565b6000606082019050614ba060008301866139c5565b614bad602083018561343c565b8181036040830152614bbf818461364f565b9050949350505050565b600060a082019050614bde60008301886139c5565b614beb60208301876139c5565b614bf860408301866139c5565b614c0560608301856147c5565b8181036080830152614c17818461364f565b90509695505050505050565b6000819050919050565b614c3e614c39826135a4565b614c23565b82525050565b6000614c508285614c2d565b602082019150614c608284614c2d565b6020820191508190509392505050565b7f4e487b7100000000000000000000000000000000000000000000000000000000600052602260045260246000fd5b60006002820490506001821680614cb757607f821691505b602082108103614cca57614cc9614c70565b5b50919050565b7f4f776e61626c653a2063616c6c6572206973206e6f7420746865206f776e6572600082015250565b6000614d06602083614606565b9150614d1182614cd0565b602082019050919050565b60006020820190508181036000830152614d3581614cf9565b9050919050565b60008190508160005260206000209050919050565b60006020601f8301049050919050565b600060088302614d917fffffffffffffffffffffffffffffffffffffffffffffffffffffffffffffffff82614ae0565b614d9b8683614ae0565b95508019841693508086168417925050509392505050565b6000819050919050565b6000614dd8614dd3614dce84613466565b614db3565b613466565b9050919050565b6000819050919050565b614df283614dbd565b614e06614dfe82614ddf565b848454614d61565b825550505050565b600090565b614e1b614e0e565b614e26818484614de9565b505050565b5b81811015614e4a57614e3f600082614e13565b600181019050614e2c565b5050565b601f821115614e8f57614e6081614d3c565b614e6984614d51565b81016020851015614e78578190505b614e8c614e8485614d51565b830182614e2b565b50505b505050565b600082821c905092915050565b6000614eb260001984600802614e94565b1980831691505092915050565b6000614ecb8383614ea1565b9150826002028217905092915050565b614ee48261361a565b67ffffffffffffffff811115614efd57614efc6136af565b5b614f078254614c9f565b614f12828285614e4e565b600060209050601f831160018114614f455760008415614f33578287015190505b614f3d8582614ebf565b865550614fa5565b601f198416614f5386614d3c565b60005b82811015614f7b57848901518255600182019150602085019450602081019050614f56565b86831015614f985784890151614f94601f891682614ea1565b8355505b6001600288020188555050505b505050505050565b6000604082019050614fc2600083018561343c565b8181036020830152614fd4818461364f565b90509392505050565b60007fffffffffffffffffffff0000000000000000000000000000000000000000000082169050919050565b6000819050919050565b61502461501f82614fdd565b615009565b82525050565b60007fffff00000000000000000000000000000000000000000000000000000000000082169050919050565b6000819050919050565b61507161506c8261502a565b615056565b82525050565b6000819050919050565b61509261508d82614a9f565b615077565b82525050565b60006150a48286615013565b600a820191506150b48285615060565b6002820191506150c48284615081565b601482019150819050949350505050565b60006150e182516135a4565b80915050919050565b60006150f58261361a565b826150ff84614a8f565b905061510a816150d5565b9250602082101561514a576151457fffffffffffffffffffffffffffffffffffffffffffffffffffffffffffffffff83602003600802614ae0565b831692505b5050919050565b600060408201905061516660008301856147c5565b8181036020830152615178818461364f565b90509392505050565b600061519461518f84613b40565b61370f565b9050828152602081018484840111156151b0576151af613b3b565b5b6151bb848285613625565b509392505050565b600082601f8301126151d8576151d76136aa565b5b81516151e8848260208601615181565b91505092915050565b600060208284031215615207576152066133a1565b5b600082015167ffffffffffffffff811115615225576152246133a6565b5b615231848285016151c3565b91505092915050565b600061524582613466565b915061525083613466565b925082820390508181111561526857615267614818565b5b92915050565b7f4e487b7100000000000000000000000000000000000000000000000000000000600052603160045260246000fdfea26469706673582212201ef9e73e645a200b43886985a99a0b22af155644df6cd3f6158d744801eb996664736f6c63430008180033",
  "linkReferences": {},
  "deployedLinkReferences": {}
}